{
	"artifacts/FundMe.sol": {
		"FundMe": {
			"abi": [
				{
					"inputs": [
						{
							"internalType": "uint256",
							"name": "_lockTime",
							"type": "uint256"
						}
					],
					"stateMutability": "nonpayable",
					"type": "constructor"
				},
				{
					"inputs": [],
					"name": "fund",
					"outputs": [],
					"stateMutability": "payable",
					"type": "function"
				},
				{
					"inputs": [
						{
							"internalType": "address",
							"name": "",
							"type": "address"
						}
					],
					"name": "fundersToAmount",
					"outputs": [
						{
							"internalType": "uint256",
							"name": "",
							"type": "uint256"
						}
					],
					"stateMutability": "view",
					"type": "function"
				},
				{
					"inputs": [],
					"name": "getChainlinkDataFeedLatestAnswer",
					"outputs": [
						{
							"internalType": "int256",
							"name": "",
							"type": "int256"
						}
					],
					"stateMutability": "view",
					"type": "function"
				},
				{
					"inputs": [],
					"name": "getFund",
					"outputs": [],
					"stateMutability": "nonpayable",
					"type": "function"
				},
				{
					"inputs": [],
					"name": "refund",
					"outputs": [],
					"stateMutability": "nonpayable",
					"type": "function"
				},
				{
					"inputs": [
						{
							"internalType": "address",
							"name": "newOwner",
							"type": "address"
						}
					],
					"name": "transferOwnership",
					"outputs": [],
					"stateMutability": "nonpayable",
					"type": "function"
				}
			],
			"devdoc": {
				"kind": "dev",
				"methods": {},
				"version": 1
			},
			"evm": {
				"assembly": "    /* \"artifacts/FundMe.sol\":164:2916  contract FundMe {... */\n  mstore(0x40, 0x80)\n    /* \"artifacts/FundMe.sol\":463:714  constructor(uint256 _lockTime) {... */\n  callvalue\n  dup1\n  iszero\n  tag_1\n  jumpi\n  revert(0x00, 0x00)\ntag_1:\n  pop\n  mload(0x40)\n  sub(codesize, bytecodeSize)\n  dup1\n  bytecodeSize\n  dup4\n  codecopy\n  dup2\n  dup2\n  add\n  0x40\n  mstore\n  dup2\n  add\n  swap1\n  tag_2\n  swap2\n  swap1\n  tag_3\n  jump\t// in\ntag_2:\n    /* \"artifacts/FundMe.sol\":550:592  0x694AA1769357215DE4FAC081bf1f309aDC325306 */\n  0x694aa1769357215de4fac081bf1f309adc325306\n    /* \"artifacts/FundMe.sol\":504:512  dataFeed */\n  0x01\n  0x00\n    /* \"artifacts/FundMe.sol\":504:602  dataFeed = AggregatorV3Interface(... */\n  0x0100\n  exp\n  dup2\n  sload\n  dup2\n  0xffffffffffffffffffffffffffffffffffffffff\n  mul\n  not\n  and\n  swap1\n  dup4\n  0xffffffffffffffffffffffffffffffffffffffff\n  and\n  mul\n  or\n  swap1\n  sstore\n  pop\n    /* \"artifacts/FundMe.sol\":620:630  msg.sender */\n  caller\n    /* \"artifacts/FundMe.sol\":612:617  owner */\n  0x02\n  0x00\n    /* \"artifacts/FundMe.sol\":612:630  owner = msg.sender */\n  0x0100\n  exp\n  dup2\n  sload\n  dup2\n  0xffffffffffffffffffffffffffffffffffffffff\n  mul\n  not\n  and\n  swap1\n  dup4\n  0xffffffffffffffffffffffffffffffffffffffff\n  and\n  mul\n  or\n  swap1\n  sstore\n  pop\n    /* \"artifacts/FundMe.sol\":662:677  block.timestamp */\n  timestamp\n    /* \"artifacts/FundMe.sol\":640:659  deploymentTimestamp */\n  0x03\n    /* \"artifacts/FundMe.sol\":640:677  deploymentTimestamp = block.timestamp */\n  dup2\n  swap1\n  sstore\n  pop\n    /* \"artifacts/FundMe.sol\":698:707  _lockTime */\n  dup1\n    /* \"artifacts/FundMe.sol\":687:695  lockTime */\n  0x04\n    /* \"artifacts/FundMe.sol\":687:707  lockTime = _lockTime */\n  dup2\n  swap1\n  sstore\n  pop\n    /* \"artifacts/FundMe.sol\":463:714  constructor(uint256 _lockTime) {... */\n  pop\n    /* \"artifacts/FundMe.sol\":164:2916  contract FundMe {... */\n  jump(tag_6)\n    /* \"#utility.yul\":88:205   */\ntag_8:\n    /* \"#utility.yul\":197:198   */\n  0x00\n    /* \"#utility.yul\":194:195   */\n  0x00\n    /* \"#utility.yul\":187:199   */\n  revert\n    /* \"#utility.yul\":334:411   */\ntag_10:\n    /* \"#utility.yul\":371:378   */\n  0x00\n    /* \"#utility.yul\":400:405   */\n  dup2\n    /* \"#utility.yul\":389:405   */\n  swap1\n  pop\n    /* \"#utility.yul\":334:411   */\n  swap2\n  swap1\n  pop\n  jump\t// out\n    /* \"#utility.yul\":417:539   */\ntag_11:\n    /* \"#utility.yul\":490:514   */\n  tag_19\n    /* \"#utility.yul\":508:513   */\n  dup2\n    /* \"#utility.yul\":490:514   */\n  tag_10\n  jump\t// in\ntag_19:\n    /* \"#utility.yul\":483:488   */\n  dup2\n    /* \"#utility.yul\":480:515   */\n  eq\n    /* \"#utility.yul\":470:533   */\n  tag_20\n  jumpi\n    /* \"#utility.yul\":529:530   */\n  0x00\n    /* \"#utility.yul\":526:527   */\n  0x00\n    /* \"#utility.yul\":519:531   */\n  revert\n    /* \"#utility.yul\":470:533   */\ntag_20:\n    /* \"#utility.yul\":417:539   */\n  pop\n  jump\t// out\n    /* \"#utility.yul\":545:688   */\ntag_12:\n    /* \"#utility.yul\":602:607   */\n  0x00\n    /* \"#utility.yul\":633:639   */\n  dup2\n    /* \"#utility.yul\":627:640   */\n  mload\n    /* \"#utility.yul\":618:640   */\n  swap1\n  pop\n    /* \"#utility.yul\":649:682   */\n  tag_22\n    /* \"#utility.yul\":676:681   */\n  dup2\n    /* \"#utility.yul\":649:682   */\n  tag_11\n  jump\t// in\ntag_22:\n    /* \"#utility.yul\":545:688   */\n  swap3\n  swap2\n  pop\n  pop\n  jump\t// out\n    /* \"#utility.yul\":694:1045   */\ntag_3:\n    /* \"#utility.yul\":764:770   */\n  0x00\n    /* \"#utility.yul\":813:815   */\n  0x20\n    /* \"#utility.yul\":801:810   */\n  dup3\n    /* \"#utility.yul\":792:799   */\n  dup5\n    /* \"#utility.yul\":788:811   */\n  sub\n    /* \"#utility.yul\":784:816   */\n  slt\n    /* \"#utility.yul\":781:900   */\n  iszero\n  tag_24\n  jumpi\n    /* \"#utility.yul\":819:898   */\n  tag_25\n  tag_8\n  jump\t// in\ntag_25:\n    /* \"#utility.yul\":781:900   */\ntag_24:\n    /* \"#utility.yul\":939:940   */\n  0x00\n    /* \"#utility.yul\":964:1028   */\n  tag_26\n    /* \"#utility.yul\":1020:1027   */\n  dup5\n    /* \"#utility.yul\":1011:1017   */\n  dup3\n    /* \"#utility.yul\":1000:1009   */\n  dup6\n    /* \"#utility.yul\":996:1018   */\n  add\n    /* \"#utility.yul\":964:1028   */\n  tag_12\n  jump\t// in\ntag_26:\n    /* \"#utility.yul\":954:1028   */\n  swap2\n  pop\n    /* \"#utility.yul\":910:1038   */\n  pop\n    /* \"#utility.yul\":694:1045   */\n  swap3\n  swap2\n  pop\n  pop\n  jump\t// out\n    /* \"artifacts/FundMe.sol\":164:2916  contract FundMe {... */\ntag_6:\n  dataSize(sub_0)\n  dup1\n  dataOffset(sub_0)\n  0x00\n  codecopy\n  0x00\n  return\nstop\n\nsub_0: assembly {\n        /* \"artifacts/FundMe.sol\":164:2916  contract FundMe {... */\n      mstore(0x40, 0x80)\n      jumpi(tag_1, lt(calldatasize, 0x04))\n      shr(0xe0, calldataload(0x00))\n      dup1\n      0x590e1ae3\n      eq\n      tag_2\n      jumpi\n      dup1\n      0x8edd6eb6\n      eq\n      tag_3\n      jumpi\n      dup1\n      0x9f883a05\n      eq\n      tag_4\n      jumpi\n      dup1\n      0xb60d4288\n      eq\n      tag_5\n      jumpi\n      dup1\n      0xbea4dfb5\n      eq\n      tag_6\n      jumpi\n      dup1\n      0xf2fde38b\n      eq\n      tag_7\n      jumpi\n    tag_1:\n      revert(0x00, 0x00)\n        /* \"artifacts/FundMe.sol\":2107:2575  function refund() external windowsclose{... */\n    tag_2:\n      callvalue\n      dup1\n      iszero\n      tag_8\n      jumpi\n      revert(0x00, 0x00)\n    tag_8:\n      pop\n      tag_9\n      tag_10\n      jump\t// in\n    tag_9:\n      stop\n        /* \"artifacts/FundMe.sol\":1702:2101  function getFund() external windowsclose onlyOwner {... */\n    tag_3:\n      callvalue\n      dup1\n      iszero\n      tag_11\n      jumpi\n      revert(0x00, 0x00)\n    tag_11:\n      pop\n      tag_12\n      tag_13\n      jump\t// in\n    tag_12:\n      stop\n        /* \"artifacts/FundMe.sol\":186:236  mapping(address => uint256) public fundersToAmount */\n    tag_4:\n      callvalue\n      dup1\n      iszero\n      tag_14\n      jumpi\n      revert(0x00, 0x00)\n    tag_14:\n      pop\n      tag_15\n      0x04\n      dup1\n      calldatasize\n      sub\n      dup2\n      add\n      swap1\n      tag_16\n      swap2\n      swap1\n      tag_17\n      jump\t// in\n    tag_16:\n      tag_18\n      jump\t// in\n    tag_15:\n      mload(0x40)\n      tag_19\n      swap2\n      swap1\n      tag_20\n      jump\t// in\n    tag_19:\n      mload(0x40)\n      dup1\n      swap2\n      sub\n      swap1\n      return\n        /* \"artifacts/FundMe.sol\":720:900  function fund() external payable windowsclose{... */\n    tag_5:\n      tag_21\n      tag_22\n      jump\t// in\n    tag_21:\n      stop\n        /* \"artifacts/FundMe.sol\":906:1247  function getChainlinkDataFeedLatestAnswer() public view returns (int256) {... */\n    tag_6:\n      callvalue\n      dup1\n      iszero\n      tag_23\n      jumpi\n      revert(0x00, 0x00)\n    tag_23:\n      pop\n      tag_24\n      tag_25\n      jump\t// in\n    tag_24:\n      mload(0x40)\n      tag_26\n      swap2\n      swap1\n      tag_27\n      jump\t// in\n    tag_26:\n      mload(0x40)\n      dup1\n      swap2\n      sub\n      swap1\n      return\n        /* \"artifacts/FundMe.sol\":1491:1696  function transferOwnership(address newOwner) public {... */\n    tag_7:\n      callvalue\n      dup1\n      iszero\n      tag_28\n      jumpi\n      revert(0x00, 0x00)\n    tag_28:\n      pop\n      tag_29\n      0x04\n      dup1\n      calldatasize\n      sub\n      dup2\n      add\n      swap1\n      tag_30\n      swap2\n      swap1\n      tag_17\n      jump\t// in\n    tag_30:\n      tag_31\n      jump\t// in\n    tag_29:\n      stop\n        /* \"artifacts/FundMe.sol\":2107:2575  function refund() external windowsclose{... */\n    tag_10:\n        /* \"artifacts/FundMe.sol\":2677:2685  lockTime */\n      sload(0x04)\n        /* \"artifacts/FundMe.sol\":2655:2674  deploymentTimestamp */\n      sload(0x03)\n        /* \"artifacts/FundMe.sol\":2655:2685  deploymentTimestamp + lockTime */\n      tag_33\n      swap2\n      swap1\n      tag_34\n      jump\t// in\n    tag_33:\n        /* \"artifacts/FundMe.sol\":2636:2651  block.timestamp */\n      timestamp\n        /* \"artifacts/FundMe.sol\":2636:2685  block.timestamp >= deploymentTimestamp + lockTime */\n      lt\n      iszero\n        /* \"artifacts/FundMe.sol\":2615:2731  require(... */\n      tag_35\n      jumpi\n      mload(0x40)\n      0x08c379a000000000000000000000000000000000000000000000000000000000\n      dup2\n      mstore\n      0x04\n      add\n      tag_36\n      swap1\n      tag_37\n      jump\t// in\n    tag_36:\n      mload(0x40)\n      dup1\n      swap2\n      sub\n      swap1\n      revert\n    tag_35:\n        /* \"artifacts/FundMe.sol\":325:336  50 * 10**18 */\n      0x02b5e3af16b1880000\n        /* \"artifacts/FundMe.sol\":2177:2215  convertEthToUsd(address(this).balance) */\n      tag_39\n        /* \"artifacts/FundMe.sol\":2193:2214  address(this).balance */\n      selfbalance\n        /* \"artifacts/FundMe.sol\":2177:2192  convertEthToUsd */\n      tag_40\n        /* \"artifacts/FundMe.sol\":2177:2215  convertEthToUsd(address(this).balance) */\n      jump\t// in\n    tag_39:\n        /* \"artifacts/FundMe.sol\":2177:2224  convertEthToUsd(address(this).balance) < TARGET */\n      lt\n        /* \"artifacts/FundMe.sol\":2156:2267  require(... */\n      tag_41\n      jumpi\n      mload(0x40)\n      0x08c379a000000000000000000000000000000000000000000000000000000000\n      dup2\n      mstore\n      0x04\n      add\n      tag_42\n      swap1\n      tag_43\n      jump\t// in\n    tag_42:\n      mload(0x40)\n      dup1\n      swap2\n      sub\n      swap1\n      revert\n    tag_41:\n        /* \"artifacts/FundMe.sol\":2316:2317  0 */\n      0x00\n        /* \"artifacts/FundMe.sol\":2285:2300  fundersToAmount */\n      0x00\n        /* \"artifacts/FundMe.sol\":2285:2312  fundersToAmount[msg.sender] */\n      0x00\n        /* \"artifacts/FundMe.sol\":2301:2311  msg.sender */\n      caller\n        /* \"artifacts/FundMe.sol\":2285:2312  fundersToAmount[msg.sender] */\n      0xffffffffffffffffffffffffffffffffffffffff\n      and\n      0xffffffffffffffffffffffffffffffffffffffff\n      and\n      dup2\n      mstore\n      0x20\n      add\n      swap1\n      dup2\n      mstore\n      0x20\n      add\n      0x00\n      keccak256\n      sload\n        /* \"artifacts/FundMe.sol\":2285:2317  fundersToAmount[msg.sender] != 0 */\n      sub\n        /* \"artifacts/FundMe.sol\":2277:2346  require(fundersToAmount[msg.sender] != 0, \"there is no fund for you\") */\n      tag_44\n      jumpi\n      mload(0x40)\n      0x08c379a000000000000000000000000000000000000000000000000000000000\n      dup2\n      mstore\n      0x04\n      add\n      tag_45\n      swap1\n      tag_46\n      jump\t// in\n    tag_45:\n      mload(0x40)\n      dup1\n      swap2\n      sub\n      swap1\n      revert\n    tag_44:\n        /* \"artifacts/FundMe.sol\":2357:2369  bool success */\n      0x00\n        /* \"artifacts/FundMe.sol\":2401:2411  msg.sender */\n      caller\n        /* \"artifacts/FundMe.sol\":2393:2417  payable(msg.sender).call */\n      0xffffffffffffffffffffffffffffffffffffffff\n      and\n        /* \"artifacts/FundMe.sol\":2438:2453  fundersToAmount */\n      0x00\n        /* \"artifacts/FundMe.sol\":2438:2465  fundersToAmount[msg.sender] */\n      0x00\n        /* \"artifacts/FundMe.sol\":2454:2464  msg.sender */\n      caller\n        /* \"artifacts/FundMe.sol\":2438:2465  fundersToAmount[msg.sender] */\n      0xffffffffffffffffffffffffffffffffffffffff\n      and\n      0xffffffffffffffffffffffffffffffffffffffff\n      and\n      dup2\n      mstore\n      0x20\n      add\n      swap1\n      dup2\n      mstore\n      0x20\n      add\n      0x00\n      keccak256\n      sload\n        /* \"artifacts/FundMe.sol\":2393:2479  payable(msg.sender).call{... */\n      mload(0x40)\n      tag_47\n      swap1\n      tag_48\n      jump\t// in\n    tag_47:\n      0x00\n      mload(0x40)\n      dup1\n      dup4\n      sub\n      dup2\n      dup6\n      dup8\n      gas\n      call\n      swap3\n      pop\n      pop\n      pop\n      returndatasize\n      dup1\n      0x00\n      dup2\n      eq\n      tag_51\n      jumpi\n      mload(0x40)\n      swap2\n      pop\n      and(add(returndatasize, 0x3f), not(0x1f))\n      dup3\n      add\n      0x40\n      mstore\n      returndatasize\n      dup3\n      mstore\n      returndatasize\n      0x00\n      0x20\n      dup5\n      add\n      returndatacopy\n      jump(tag_50)\n    tag_51:\n      0x60\n      swap2\n      pop\n    tag_50:\n      pop\n        /* \"artifacts/FundMe.sol\":2379:2479  (success, ) = payable(msg.sender).call{... */\n      pop\n      dup1\n      swap2\n      pop\n      pop\n        /* \"artifacts/FundMe.sol\":2497:2504  success */\n      dup1\n        /* \"artifacts/FundMe.sol\":2489:2527  require(success, \"transfer is failed\") */\n      tag_52\n      jumpi\n      mload(0x40)\n      0x08c379a000000000000000000000000000000000000000000000000000000000\n      dup2\n      mstore\n      0x04\n      add\n      tag_53\n      swap1\n      tag_54\n      jump\t// in\n    tag_53:\n      mload(0x40)\n      dup1\n      swap2\n      sub\n      swap1\n      revert\n    tag_52:\n        /* \"artifacts/FundMe.sol\":2567:2568  0 */\n      0x00\n        /* \"artifacts/FundMe.sol\":2537:2552  fundersToAmount */\n      0x00\n        /* \"artifacts/FundMe.sol\":2537:2564  fundersToAmount[msg.sender] */\n      0x00\n        /* \"artifacts/FundMe.sol\":2553:2563  msg.sender */\n      caller\n        /* \"artifacts/FundMe.sol\":2537:2564  fundersToAmount[msg.sender] */\n      0xffffffffffffffffffffffffffffffffffffffff\n      and\n      0xffffffffffffffffffffffffffffffffffffffff\n      and\n      dup2\n      mstore\n      0x20\n      add\n      swap1\n      dup2\n      mstore\n      0x20\n      add\n      0x00\n      keccak256\n        /* \"artifacts/FundMe.sol\":2537:2568  fundersToAmount[msg.sender] = 0 */\n      dup2\n      swap1\n      sstore\n      pop\n        /* \"artifacts/FundMe.sol\":2146:2575  {... */\n      pop\n        /* \"artifacts/FundMe.sol\":2107:2575  function refund() external windowsclose{... */\n      jump\t// out\n        /* \"artifacts/FundMe.sol\":1702:2101  function getFund() external windowsclose onlyOwner {... */\n    tag_13:\n        /* \"artifacts/FundMe.sol\":2677:2685  lockTime */\n      sload(0x04)\n        /* \"artifacts/FundMe.sol\":2655:2674  deploymentTimestamp */\n      sload(0x03)\n        /* \"artifacts/FundMe.sol\":2655:2685  deploymentTimestamp + lockTime */\n      tag_56\n      swap2\n      swap1\n      tag_34\n      jump\t// in\n    tag_56:\n        /* \"artifacts/FundMe.sol\":2636:2651  block.timestamp */\n      timestamp\n        /* \"artifacts/FundMe.sol\":2636:2685  block.timestamp >= deploymentTimestamp + lockTime */\n      lt\n      iszero\n        /* \"artifacts/FundMe.sol\":2615:2731  require(... */\n      tag_57\n      jumpi\n      mload(0x40)\n      0x08c379a000000000000000000000000000000000000000000000000000000000\n      dup2\n      mstore\n      0x04\n      add\n      tag_58\n      swap1\n      tag_37\n      jump\t// in\n    tag_58:\n      mload(0x40)\n      dup1\n      swap2\n      sub\n      swap1\n      revert\n    tag_57:\n        /* \"artifacts/FundMe.sol\":2821:2826  owner */\n      0x02\n      0x00\n      swap1\n      sload\n      swap1\n      0x0100\n      exp\n      swap1\n      div\n      0xffffffffffffffffffffffffffffffffffffffff\n      and\n        /* \"artifacts/FundMe.sol\":2807:2826  msg.sender == owner */\n      0xffffffffffffffffffffffffffffffffffffffff\n      and\n        /* \"artifacts/FundMe.sol\":2807:2817  msg.sender */\n      caller\n        /* \"artifacts/FundMe.sol\":2807:2826  msg.sender == owner */\n      0xffffffffffffffffffffffffffffffffffffffff\n      and\n      eq\n        /* \"artifacts/FundMe.sol\":2786:2896  require(... */\n      tag_60\n      jumpi\n      mload(0x40)\n      0x08c379a000000000000000000000000000000000000000000000000000000000\n      dup2\n      mstore\n      0x04\n      add\n      tag_61\n      swap1\n      tag_62\n      jump\t// in\n    tag_61:\n      mload(0x40)\n      dup1\n      swap2\n      sub\n      swap1\n      revert\n    tag_60:\n        /* \"artifacts/FundMe.sol\":325:336  50 * 10**18 */\n      0x02b5e3af16b1880000\n        /* \"artifacts/FundMe.sol\":1784:1822  convertEthToUsd(address(this).balance) */\n      tag_64\n        /* \"artifacts/FundMe.sol\":1800:1821  address(this).balance */\n      selfbalance\n        /* \"artifacts/FundMe.sol\":1784:1799  convertEthToUsd */\n      tag_40\n        /* \"artifacts/FundMe.sol\":1784:1822  convertEthToUsd(address(this).balance) */\n      jump\t// in\n    tag_64:\n        /* \"artifacts/FundMe.sol\":1784:1832  convertEthToUsd(address(this).balance) >= TARGET */\n      lt\n      iszero\n        /* \"artifacts/FundMe.sol\":1763:1879  require(... */\n      tag_65\n      jumpi\n      mload(0x40)\n      0x08c379a000000000000000000000000000000000000000000000000000000000\n      dup2\n      mstore\n      0x04\n      add\n      tag_66\n      swap1\n      tag_67\n      jump\t// in\n    tag_66:\n      mload(0x40)\n      dup1\n      swap2\n      sub\n      swap1\n      revert\n    tag_65:\n        /* \"artifacts/FundMe.sol\":1889:1901  bool success */\n      0x00\n        /* \"artifacts/FundMe.sol\":1933:1943  msg.sender */\n      caller\n        /* \"artifacts/FundMe.sol\":1925:1949  payable(msg.sender).call */\n      0xffffffffffffffffffffffffffffffffffffffff\n      and\n        /* \"artifacts/FundMe.sol\":1957:1978  address(this).balance */\n      selfbalance\n        /* \"artifacts/FundMe.sol\":1925:2005  payable(msg.sender).call{value: address(this).balance}(... */\n      mload(0x40)\n      tag_68\n      swap1\n      tag_48\n      jump\t// in\n    tag_68:\n      0x00\n      mload(0x40)\n      dup1\n      dup4\n      sub\n      dup2\n      dup6\n      dup8\n      gas\n      call\n      swap3\n      pop\n      pop\n      pop\n      returndatasize\n      dup1\n      0x00\n      dup2\n      eq\n      tag_71\n      jumpi\n      mload(0x40)\n      swap2\n      pop\n      and(add(returndatasize, 0x3f), not(0x1f))\n      dup3\n      add\n      0x40\n      mstore\n      returndatasize\n      dup3\n      mstore\n      returndatasize\n      0x00\n      0x20\n      dup5\n      add\n      returndatacopy\n      jump(tag_70)\n    tag_71:\n      0x60\n      swap2\n      pop\n    tag_70:\n      pop\n        /* \"artifacts/FundMe.sol\":1911:2005  (success, ) = payable(msg.sender).call{value: address(this).balance}(... */\n      pop\n      dup1\n      swap2\n      pop\n      pop\n        /* \"artifacts/FundMe.sol\":2023:2030  success */\n      dup1\n        /* \"artifacts/FundMe.sol\":2015:2053  require(success, \"transfer is failed\") */\n      tag_72\n      jumpi\n      mload(0x40)\n      0x08c379a000000000000000000000000000000000000000000000000000000000\n      dup2\n      mstore\n      0x04\n      add\n      tag_73\n      swap1\n      tag_54\n      jump\t// in\n    tag_73:\n      mload(0x40)\n      dup1\n      swap2\n      sub\n      swap1\n      revert\n    tag_72:\n        /* \"artifacts/FundMe.sol\":2093:2094  0 */\n      0x00\n        /* \"artifacts/FundMe.sol\":2063:2078  fundersToAmount */\n      0x00\n        /* \"artifacts/FundMe.sol\":2063:2090  fundersToAmount[msg.sender] */\n      0x00\n        /* \"artifacts/FundMe.sol\":2079:2089  msg.sender */\n      caller\n        /* \"artifacts/FundMe.sol\":2063:2090  fundersToAmount[msg.sender] */\n      0xffffffffffffffffffffffffffffffffffffffff\n      and\n      0xffffffffffffffffffffffffffffffffffffffff\n      and\n      dup2\n      mstore\n      0x20\n      add\n      swap1\n      dup2\n      mstore\n      0x20\n      add\n      0x00\n      keccak256\n        /* \"artifacts/FundMe.sol\":2063:2094  fundersToAmount[msg.sender] = 0 */\n      dup2\n      swap1\n      sstore\n      pop\n        /* \"artifacts/FundMe.sol\":1753:2101  {... */\n      pop\n        /* \"artifacts/FundMe.sol\":1702:2101  function getFund() external windowsclose onlyOwner {... */\n      jump\t// out\n        /* \"artifacts/FundMe.sol\":186:236  mapping(address => uint256) public fundersToAmount */\n    tag_18:\n      mstore(0x20, 0x00)\n      dup1\n      0x00\n      mstore\n      keccak256(0x00, 0x40)\n      0x00\n      swap2\n      pop\n      swap1\n      pop\n      sload\n      dup2\n      jump\t// out\n        /* \"artifacts/FundMe.sol\":720:900  function fund() external payable windowsclose{... */\n    tag_22:\n        /* \"artifacts/FundMe.sol\":2677:2685  lockTime */\n      sload(0x04)\n        /* \"artifacts/FundMe.sol\":2655:2674  deploymentTimestamp */\n      sload(0x03)\n        /* \"artifacts/FundMe.sol\":2655:2685  deploymentTimestamp + lockTime */\n      tag_75\n      swap2\n      swap1\n      tag_34\n      jump\t// in\n    tag_75:\n        /* \"artifacts/FundMe.sol\":2636:2651  block.timestamp */\n      timestamp\n        /* \"artifacts/FundMe.sol\":2636:2685  block.timestamp >= deploymentTimestamp + lockTime */\n      lt\n      iszero\n        /* \"artifacts/FundMe.sol\":2615:2731  require(... */\n      tag_76\n      jumpi\n      mload(0x40)\n      0x08c379a000000000000000000000000000000000000000000000000000000000\n      dup2\n      mstore\n      0x04\n      add\n      tag_77\n      swap1\n      tag_37\n      jump\t// in\n    tag_77:\n      mload(0x40)\n      dup1\n      swap2\n      sub\n      swap1\n      revert\n    tag_76:\n        /* \"artifacts/FundMe.sol\":275:286  10 * 10**18 */\n      0x8ac7230489e80000\n        /* \"artifacts/FundMe.sol\":783:809  convertEthToUsd(msg.value) */\n      tag_79\n        /* \"artifacts/FundMe.sol\":799:808  msg.value */\n      callvalue\n        /* \"artifacts/FundMe.sol\":783:798  convertEthToUsd */\n      tag_40\n        /* \"artifacts/FundMe.sol\":783:809  convertEthToUsd(msg.value) */\n      jump\t// in\n    tag_79:\n        /* \"artifacts/FundMe.sol\":783:826  convertEthToUsd(msg.value) >= MINIMUM_VALUE */\n      lt\n      iszero\n        /* \"artifacts/FundMe.sol\":775:844  require(convertEthToUsd(msg.value) >= MINIMUM_VALUE, \"Send more ETH\") */\n      tag_80\n      jumpi\n      mload(0x40)\n      0x08c379a000000000000000000000000000000000000000000000000000000000\n      dup2\n      mstore\n      0x04\n      add\n      tag_81\n      swap1\n      tag_82\n      jump\t// in\n    tag_81:\n      mload(0x40)\n      dup1\n      swap2\n      sub\n      swap1\n      revert\n    tag_80:\n        /* \"artifacts/FundMe.sol\":884:893  msg.value */\n      callvalue\n        /* \"artifacts/FundMe.sol\":854:869  fundersToAmount */\n      0x00\n        /* \"artifacts/FundMe.sol\":854:881  fundersToAmount[msg.sender] */\n      0x00\n        /* \"artifacts/FundMe.sol\":870:880  msg.sender */\n      caller\n        /* \"artifacts/FundMe.sol\":854:881  fundersToAmount[msg.sender] */\n      0xffffffffffffffffffffffffffffffffffffffff\n      and\n      0xffffffffffffffffffffffffffffffffffffffff\n      and\n      dup2\n      mstore\n      0x20\n      add\n      swap1\n      dup2\n      mstore\n      0x20\n      add\n      0x00\n      keccak256\n        /* \"artifacts/FundMe.sol\":854:893  fundersToAmount[msg.sender] = msg.value */\n      dup2\n      swap1\n      sstore\n      pop\n        /* \"artifacts/FundMe.sol\":720:900  function fund() external payable windowsclose{... */\n      jump\t// out\n        /* \"artifacts/FundMe.sol\":906:1247  function getChainlinkDataFeedLatestAnswer() public view returns (int256) {... */\n    tag_25:\n        /* \"artifacts/FundMe.sol\":971:977  int256 */\n      0x00\n        /* \"artifacts/FundMe.sol\":1064:1074  int answer */\n      0x00\n        /* \"artifacts/FundMe.sol\":1191:1199  dataFeed */\n      0x01\n      0x00\n      swap1\n      sload\n      swap1\n      0x0100\n      exp\n      swap1\n      div\n      0xffffffffffffffffffffffffffffffffffffffff\n      and\n        /* \"artifacts/FundMe.sol\":1191:1215  dataFeed.latestRoundData */\n      0xffffffffffffffffffffffffffffffffffffffff\n      and\n      0xfeaf968c\n        /* \"artifacts/FundMe.sol\":1191:1217  dataFeed.latestRoundData() */\n      mload(0x40)\n      dup2\n      0xffffffff\n      and\n      0xe0\n      shl\n      dup2\n      mstore\n      0x04\n      add\n      0xa0\n      mload(0x40)\n      dup1\n      dup4\n      sub\n      dup2\n      dup7\n      gas\n      staticcall\n      iszero\n      dup1\n      iszero\n      tag_85\n      jumpi\n      returndatacopy(0x00, 0x00, returndatasize)\n      revert(0x00, returndatasize)\n    tag_85:\n      pop\n      pop\n      pop\n      pop\n      mload(0x40)\n      returndatasize\n      not(0x1f)\n      0x1f\n      dup3\n      add\n      and\n      dup3\n      add\n      dup1\n      0x40\n      mstore\n      pop\n      dup2\n      add\n      swap1\n      tag_86\n      swap2\n      swap1\n      tag_87\n      jump\t// in\n    tag_86:\n        /* \"artifacts/FundMe.sol\":1016:1217  (... */\n      pop\n      pop\n      pop\n      swap2\n      pop\n      pop\n        /* \"artifacts/FundMe.sol\":1234:1240  answer */\n      dup1\n        /* \"artifacts/FundMe.sol\":1227:1240  return answer */\n      swap2\n      pop\n      pop\n        /* \"artifacts/FundMe.sol\":906:1247  function getChainlinkDataFeedLatestAnswer() public view returns (int256) {... */\n      swap1\n      jump\t// out\n        /* \"artifacts/FundMe.sol\":1491:1696  function transferOwnership(address newOwner) public {... */\n    tag_31:\n        /* \"artifacts/FundMe.sol\":1588:1593  owner */\n      0x02\n      0x00\n      swap1\n      sload\n      swap1\n      0x0100\n      exp\n      swap1\n      div\n      0xffffffffffffffffffffffffffffffffffffffff\n      and\n        /* \"artifacts/FundMe.sol\":1574:1593  msg.sender == owner */\n      0xffffffffffffffffffffffffffffffffffffffff\n      and\n        /* \"artifacts/FundMe.sol\":1574:1584  msg.sender */\n      caller\n        /* \"artifacts/FundMe.sol\":1574:1593  msg.sender == owner */\n      0xffffffffffffffffffffffffffffffffffffffff\n      and\n      eq\n        /* \"artifacts/FundMe.sol\":1553:1663  require(... */\n      tag_89\n      jumpi\n      mload(0x40)\n      0x08c379a000000000000000000000000000000000000000000000000000000000\n      dup2\n      mstore\n      0x04\n      add\n      tag_90\n      swap1\n      tag_62\n      jump\t// in\n    tag_90:\n      mload(0x40)\n      dup1\n      swap2\n      sub\n      swap1\n      revert\n    tag_89:\n        /* \"artifacts/FundMe.sol\":1681:1689  newOwner */\n      dup1\n        /* \"artifacts/FundMe.sol\":1673:1678  owner */\n      0x02\n      0x00\n        /* \"artifacts/FundMe.sol\":1673:1689  owner = newOwner */\n      0x0100\n      exp\n      dup2\n      sload\n      dup2\n      0xffffffffffffffffffffffffffffffffffffffff\n      mul\n      not\n      and\n      swap1\n      dup4\n      0xffffffffffffffffffffffffffffffffffffffff\n      and\n      mul\n      or\n      swap1\n      sstore\n      pop\n        /* \"artifacts/FundMe.sol\":1491:1696  function transferOwnership(address newOwner) public {... */\n      pop\n      jump\t// out\n        /* \"artifacts/FundMe.sol\":1253:1485  function convertEthToUsd(uint256 ethAmount)... */\n    tag_40:\n        /* \"artifacts/FundMe.sol\":1344:1351  uint256 */\n      0x00\n        /* \"artifacts/FundMe.sol\":1367:1383  uint256 ethPrice */\n      0x00\n        /* \"artifacts/FundMe.sol\":1394:1428  getChainlinkDataFeedLatestAnswer() */\n      tag_92\n        /* \"artifacts/FundMe.sol\":1394:1426  getChainlinkDataFeedLatestAnswer */\n      tag_25\n        /* \"artifacts/FundMe.sol\":1394:1428  getChainlinkDataFeedLatestAnswer() */\n      jump\t// in\n    tag_92:\n        /* \"artifacts/FundMe.sol\":1367:1429  uint256 ethPrice = uint256(getChainlinkDataFeedLatestAnswer()) */\n      swap1\n      pop\n        /* \"artifacts/FundMe.sol\":1472:1477  10**8 */\n      0x05f5e100\n        /* \"artifacts/FundMe.sol\":1459:1467  ethPrice */\n      dup2\n        /* \"artifacts/FundMe.sol\":1447:1456  ethAmount */\n      dup5\n        /* \"artifacts/FundMe.sol\":1447:1467  ethAmount * ethPrice */\n      tag_93\n      swap2\n      swap1\n      tag_94\n      jump\t// in\n    tag_93:\n        /* \"artifacts/FundMe.sol\":1446:1478  (ethAmount * ethPrice) / (10**8) */\n      tag_95\n      swap2\n      swap1\n      tag_96\n      jump\t// in\n    tag_95:\n        /* \"artifacts/FundMe.sol\":1439:1478  return (ethAmount * ethPrice) / (10**8) */\n      swap2\n      pop\n      pop\n        /* \"artifacts/FundMe.sol\":1253:1485  function convertEthToUsd(uint256 ethAmount)... */\n      swap2\n      swap1\n      pop\n      jump\t// out\n        /* \"#utility.yul\":88:205   */\n    tag_98:\n        /* \"#utility.yul\":197:198   */\n      0x00\n        /* \"#utility.yul\":194:195   */\n      0x00\n        /* \"#utility.yul\":187:199   */\n      revert\n        /* \"#utility.yul\":334:460   */\n    tag_100:\n        /* \"#utility.yul\":371:378   */\n      0x00\n        /* \"#utility.yul\":411:453   */\n      0xffffffffffffffffffffffffffffffffffffffff\n        /* \"#utility.yul\":404:409   */\n      dup3\n        /* \"#utility.yul\":400:454   */\n      and\n        /* \"#utility.yul\":389:454   */\n      swap1\n      pop\n        /* \"#utility.yul\":334:460   */\n      swap2\n      swap1\n      pop\n      jump\t// out\n        /* \"#utility.yul\":466:562   */\n    tag_101:\n        /* \"#utility.yul\":503:510   */\n      0x00\n        /* \"#utility.yul\":532:556   */\n      tag_141\n        /* \"#utility.yul\":550:555   */\n      dup3\n        /* \"#utility.yul\":532:556   */\n      tag_100\n      jump\t// in\n    tag_141:\n        /* \"#utility.yul\":521:556   */\n      swap1\n      pop\n        /* \"#utility.yul\":466:562   */\n      swap2\n      swap1\n      pop\n      jump\t// out\n        /* \"#utility.yul\":568:690   */\n    tag_102:\n        /* \"#utility.yul\":641:665   */\n      tag_143\n        /* \"#utility.yul\":659:664   */\n      dup2\n        /* \"#utility.yul\":641:665   */\n      tag_101\n      jump\t// in\n    tag_143:\n        /* \"#utility.yul\":634:639   */\n      dup2\n        /* \"#utility.yul\":631:666   */\n      eq\n        /* \"#utility.yul\":621:684   */\n      tag_144\n      jumpi\n        /* \"#utility.yul\":680:681   */\n      0x00\n        /* \"#utility.yul\":677:678   */\n      0x00\n        /* \"#utility.yul\":670:682   */\n      revert\n        /* \"#utility.yul\":621:684   */\n    tag_144:\n        /* \"#utility.yul\":568:690   */\n      pop\n      jump\t// out\n        /* \"#utility.yul\":696:835   */\n    tag_103:\n        /* \"#utility.yul\":742:747   */\n      0x00\n        /* \"#utility.yul\":780:786   */\n      dup2\n        /* \"#utility.yul\":767:787   */\n      calldataload\n        /* \"#utility.yul\":758:787   */\n      swap1\n      pop\n        /* \"#utility.yul\":796:829   */\n      tag_146\n        /* \"#utility.yul\":823:828   */\n      dup2\n        /* \"#utility.yul\":796:829   */\n      tag_102\n      jump\t// in\n    tag_146:\n        /* \"#utility.yul\":696:835   */\n      swap3\n      swap2\n      pop\n      pop\n      jump\t// out\n        /* \"#utility.yul\":841:1170   */\n    tag_17:\n        /* \"#utility.yul\":900:906   */\n      0x00\n        /* \"#utility.yul\":949:951   */\n      0x20\n        /* \"#utility.yul\":937:946   */\n      dup3\n        /* \"#utility.yul\":928:935   */\n      dup5\n        /* \"#utility.yul\":924:947   */\n      sub\n        /* \"#utility.yul\":920:952   */\n      slt\n        /* \"#utility.yul\":917:1036   */\n      iszero\n      tag_148\n      jumpi\n        /* \"#utility.yul\":955:1034   */\n      tag_149\n      tag_98\n      jump\t// in\n    tag_149:\n        /* \"#utility.yul\":917:1036   */\n    tag_148:\n        /* \"#utility.yul\":1075:1076   */\n      0x00\n        /* \"#utility.yul\":1100:1153   */\n      tag_150\n        /* \"#utility.yul\":1145:1152   */\n      dup5\n        /* \"#utility.yul\":1136:1142   */\n      dup3\n        /* \"#utility.yul\":1125:1134   */\n      dup6\n        /* \"#utility.yul\":1121:1143   */\n      add\n        /* \"#utility.yul\":1100:1153   */\n      tag_103\n      jump\t// in\n    tag_150:\n        /* \"#utility.yul\":1090:1153   */\n      swap2\n      pop\n        /* \"#utility.yul\":1046:1163   */\n      pop\n        /* \"#utility.yul\":841:1170   */\n      swap3\n      swap2\n      pop\n      pop\n      jump\t// out\n        /* \"#utility.yul\":1176:1253   */\n    tag_104:\n        /* \"#utility.yul\":1213:1220   */\n      0x00\n        /* \"#utility.yul\":1242:1247   */\n      dup2\n        /* \"#utility.yul\":1231:1247   */\n      swap1\n      pop\n        /* \"#utility.yul\":1176:1253   */\n      swap2\n      swap1\n      pop\n      jump\t// out\n        /* \"#utility.yul\":1259:1377   */\n    tag_105:\n        /* \"#utility.yul\":1346:1370   */\n      tag_153\n        /* \"#utility.yul\":1364:1369   */\n      dup2\n        /* \"#utility.yul\":1346:1370   */\n      tag_104\n      jump\t// in\n    tag_153:\n        /* \"#utility.yul\":1341:1344   */\n      dup3\n        /* \"#utility.yul\":1334:1371   */\n      mstore\n        /* \"#utility.yul\":1259:1377   */\n      pop\n      pop\n      jump\t// out\n        /* \"#utility.yul\":1383:1605   */\n    tag_20:\n        /* \"#utility.yul\":1476:1480   */\n      0x00\n        /* \"#utility.yul\":1514:1516   */\n      0x20\n        /* \"#utility.yul\":1503:1512   */\n      dup3\n        /* \"#utility.yul\":1499:1517   */\n      add\n        /* \"#utility.yul\":1491:1517   */\n      swap1\n      pop\n        /* \"#utility.yul\":1527:1598   */\n      tag_155\n        /* \"#utility.yul\":1595:1596   */\n      0x00\n        /* \"#utility.yul\":1584:1593   */\n      dup4\n        /* \"#utility.yul\":1580:1597   */\n      add\n        /* \"#utility.yul\":1571:1577   */\n      dup5\n        /* \"#utility.yul\":1527:1598   */\n      tag_105\n      jump\t// in\n    tag_155:\n        /* \"#utility.yul\":1383:1605   */\n      swap3\n      swap2\n      pop\n      pop\n      jump\t// out\n        /* \"#utility.yul\":1611:1687   */\n    tag_106:\n        /* \"#utility.yul\":1647:1654   */\n      0x00\n        /* \"#utility.yul\":1676:1681   */\n      dup2\n        /* \"#utility.yul\":1665:1681   */\n      swap1\n      pop\n        /* \"#utility.yul\":1611:1687   */\n      swap2\n      swap1\n      pop\n      jump\t// out\n        /* \"#utility.yul\":1693:1808   */\n    tag_107:\n        /* \"#utility.yul\":1778:1801   */\n      tag_158\n        /* \"#utility.yul\":1795:1800   */\n      dup2\n        /* \"#utility.yul\":1778:1801   */\n      tag_106\n      jump\t// in\n    tag_158:\n        /* \"#utility.yul\":1773:1776   */\n      dup3\n        /* \"#utility.yul\":1766:1802   */\n      mstore\n        /* \"#utility.yul\":1693:1808   */\n      pop\n      pop\n      jump\t// out\n        /* \"#utility.yul\":1814:2032   */\n    tag_27:\n        /* \"#utility.yul\":1905:1909   */\n      0x00\n        /* \"#utility.yul\":1943:1945   */\n      0x20\n        /* \"#utility.yul\":1932:1941   */\n      dup3\n        /* \"#utility.yul\":1928:1946   */\n      add\n        /* \"#utility.yul\":1920:1946   */\n      swap1\n      pop\n        /* \"#utility.yul\":1956:2025   */\n      tag_160\n        /* \"#utility.yul\":2022:2023   */\n      0x00\n        /* \"#utility.yul\":2011:2020   */\n      dup4\n        /* \"#utility.yul\":2007:2024   */\n      add\n        /* \"#utility.yul\":1998:2004   */\n      dup5\n        /* \"#utility.yul\":1956:2025   */\n      tag_107\n      jump\t// in\n    tag_160:\n        /* \"#utility.yul\":1814:2032   */\n      swap3\n      swap2\n      pop\n      pop\n      jump\t// out\n        /* \"#utility.yul\":2038:2218   */\n    tag_108:\n        /* \"#utility.yul\":2086:2163   */\n      0x4e487b7100000000000000000000000000000000000000000000000000000000\n        /* \"#utility.yul\":2083:2084   */\n      0x00\n        /* \"#utility.yul\":2076:2164   */\n      mstore\n        /* \"#utility.yul\":2183:2187   */\n      0x11\n        /* \"#utility.yul\":2180:2181   */\n      0x04\n        /* \"#utility.yul\":2173:2188   */\n      mstore\n        /* \"#utility.yul\":2207:2211   */\n      0x24\n        /* \"#utility.yul\":2204:2205   */\n      0x00\n        /* \"#utility.yul\":2197:2212   */\n      revert\n        /* \"#utility.yul\":2224:2415   */\n    tag_34:\n        /* \"#utility.yul\":2264:2267   */\n      0x00\n        /* \"#utility.yul\":2283:2303   */\n      tag_163\n        /* \"#utility.yul\":2301:2302   */\n      dup3\n        /* \"#utility.yul\":2283:2303   */\n      tag_104\n      jump\t// in\n    tag_163:\n        /* \"#utility.yul\":2278:2303   */\n      swap2\n      pop\n        /* \"#utility.yul\":2317:2337   */\n      tag_164\n        /* \"#utility.yul\":2335:2336   */\n      dup4\n        /* \"#utility.yul\":2317:2337   */\n      tag_104\n      jump\t// in\n    tag_164:\n        /* \"#utility.yul\":2312:2337   */\n      swap3\n      pop\n        /* \"#utility.yul\":2360:2361   */\n      dup3\n        /* \"#utility.yul\":2357:2358   */\n      dup3\n        /* \"#utility.yul\":2353:2362   */\n      add\n        /* \"#utility.yul\":2346:2362   */\n      swap1\n      pop\n        /* \"#utility.yul\":2381:2384   */\n      dup1\n        /* \"#utility.yul\":2378:2379   */\n      dup3\n        /* \"#utility.yul\":2375:2385   */\n      gt\n        /* \"#utility.yul\":2372:2408   */\n      iszero\n      tag_165\n      jumpi\n        /* \"#utility.yul\":2388:2406   */\n      tag_166\n      tag_108\n      jump\t// in\n    tag_166:\n        /* \"#utility.yul\":2372:2408   */\n    tag_165:\n        /* \"#utility.yul\":2224:2415   */\n      swap3\n      swap2\n      pop\n      pop\n      jump\t// out\n        /* \"#utility.yul\":2421:2590   */\n    tag_109:\n        /* \"#utility.yul\":2505:2516   */\n      0x00\n        /* \"#utility.yul\":2539:2545   */\n      dup3\n        /* \"#utility.yul\":2534:2537   */\n      dup3\n        /* \"#utility.yul\":2527:2546   */\n      mstore\n        /* \"#utility.yul\":2579:2583   */\n      0x20\n        /* \"#utility.yul\":2574:2577   */\n      dup3\n        /* \"#utility.yul\":2570:2584   */\n      add\n        /* \"#utility.yul\":2555:2584   */\n      swap1\n      pop\n        /* \"#utility.yul\":2421:2590   */\n      swap3\n      swap2\n      pop\n      pop\n      jump\t// out\n        /* \"#utility.yul\":2596:2766   */\n    tag_110:\n        /* \"#utility.yul\":2736:2758   */\n      0x77696e646f77206973206e6f7420636c6f736564000000000000000000000000\n        /* \"#utility.yul\":2732:2733   */\n      0x00\n        /* \"#utility.yul\":2724:2730   */\n      dup3\n        /* \"#utility.yul\":2720:2734   */\n      add\n        /* \"#utility.yul\":2713:2759   */\n      mstore\n        /* \"#utility.yul\":2596:2766   */\n      pop\n      jump\t// out\n        /* \"#utility.yul\":2772:3138   */\n    tag_111:\n        /* \"#utility.yul\":2914:2917   */\n      0x00\n        /* \"#utility.yul\":2935:3002   */\n      tag_170\n        /* \"#utility.yul\":2999:3001   */\n      0x14\n        /* \"#utility.yul\":2994:2997   */\n      dup4\n        /* \"#utility.yul\":2935:3002   */\n      tag_109\n      jump\t// in\n    tag_170:\n        /* \"#utility.yul\":2928:3002   */\n      swap2\n      pop\n        /* \"#utility.yul\":3011:3104   */\n      tag_171\n        /* \"#utility.yul\":3100:3103   */\n      dup3\n        /* \"#utility.yul\":3011:3104   */\n      tag_110\n      jump\t// in\n    tag_171:\n        /* \"#utility.yul\":3129:3131   */\n      0x20\n        /* \"#utility.yul\":3124:3127   */\n      dup3\n        /* \"#utility.yul\":3120:3132   */\n      add\n        /* \"#utility.yul\":3113:3132   */\n      swap1\n      pop\n        /* \"#utility.yul\":2772:3138   */\n      swap2\n      swap1\n      pop\n      jump\t// out\n        /* \"#utility.yul\":3144:3563   */\n    tag_37:\n        /* \"#utility.yul\":3310:3314   */\n      0x00\n        /* \"#utility.yul\":3348:3350   */\n      0x20\n        /* \"#utility.yul\":3337:3346   */\n      dup3\n        /* \"#utility.yul\":3333:3351   */\n      add\n        /* \"#utility.yul\":3325:3351   */\n      swap1\n      pop\n        /* \"#utility.yul\":3397:3406   */\n      dup2\n        /* \"#utility.yul\":3391:3395   */\n      dup2\n        /* \"#utility.yul\":3387:3407   */\n      sub\n        /* \"#utility.yul\":3383:3384   */\n      0x00\n        /* \"#utility.yul\":3372:3381   */\n      dup4\n        /* \"#utility.yul\":3368:3385   */\n      add\n        /* \"#utility.yul\":3361:3408   */\n      mstore\n        /* \"#utility.yul\":3425:3556   */\n      tag_173\n        /* \"#utility.yul\":3551:3555   */\n      dup2\n        /* \"#utility.yul\":3425:3556   */\n      tag_111\n      jump\t// in\n    tag_173:\n        /* \"#utility.yul\":3417:3556   */\n      swap1\n      pop\n        /* \"#utility.yul\":3144:3563   */\n      swap2\n      swap1\n      pop\n      jump\t// out\n        /* \"#utility.yul\":3569:3736   */\n    tag_112:\n        /* \"#utility.yul\":3709:3728   */\n      0x5441524745542069732072656163686564000000000000000000000000000000\n        /* \"#utility.yul\":3705:3706   */\n      0x00\n        /* \"#utility.yul\":3697:3703   */\n      dup3\n        /* \"#utility.yul\":3693:3707   */\n      add\n        /* \"#utility.yul\":3686:3729   */\n      mstore\n        /* \"#utility.yul\":3569:3736   */\n      pop\n      jump\t// out\n        /* \"#utility.yul\":3742:4108   */\n    tag_113:\n        /* \"#utility.yul\":3884:3887   */\n      0x00\n        /* \"#utility.yul\":3905:3972   */\n      tag_176\n        /* \"#utility.yul\":3969:3971   */\n      0x11\n        /* \"#utility.yul\":3964:3967   */\n      dup4\n        /* \"#utility.yul\":3905:3972   */\n      tag_109\n      jump\t// in\n    tag_176:\n        /* \"#utility.yul\":3898:3972   */\n      swap2\n      pop\n        /* \"#utility.yul\":3981:4074   */\n      tag_177\n        /* \"#utility.yul\":4070:4073   */\n      dup3\n        /* \"#utility.yul\":3981:4074   */\n      tag_112\n      jump\t// in\n    tag_177:\n        /* \"#utility.yul\":4099:4101   */\n      0x20\n        /* \"#utility.yul\":4094:4097   */\n      dup3\n        /* \"#utility.yul\":4090:4102   */\n      add\n        /* \"#utility.yul\":4083:4102   */\n      swap1\n      pop\n        /* \"#utility.yul\":3742:4108   */\n      swap2\n      swap1\n      pop\n      jump\t// out\n        /* \"#utility.yul\":4114:4533   */\n    tag_43:\n        /* \"#utility.yul\":4280:4284   */\n      0x00\n        /* \"#utility.yul\":4318:4320   */\n      0x20\n        /* \"#utility.yul\":4307:4316   */\n      dup3\n        /* \"#utility.yul\":4303:4321   */\n      add\n        /* \"#utility.yul\":4295:4321   */\n      swap1\n      pop\n        /* \"#utility.yul\":4367:4376   */\n      dup2\n        /* \"#utility.yul\":4361:4365   */\n      dup2\n        /* \"#utility.yul\":4357:4377   */\n      sub\n        /* \"#utility.yul\":4353:4354   */\n      0x00\n        /* \"#utility.yul\":4342:4351   */\n      dup4\n        /* \"#utility.yul\":4338:4355   */\n      add\n        /* \"#utility.yul\":4331:4378   */\n      mstore\n        /* \"#utility.yul\":4395:4526   */\n      tag_179\n        /* \"#utility.yul\":4521:4525   */\n      dup2\n        /* \"#utility.yul\":4395:4526   */\n      tag_113\n      jump\t// in\n    tag_179:\n        /* \"#utility.yul\":4387:4526   */\n      swap1\n      pop\n        /* \"#utility.yul\":4114:4533   */\n      swap2\n      swap1\n      pop\n      jump\t// out\n        /* \"#utility.yul\":4539:4713   */\n    tag_114:\n        /* \"#utility.yul\":4679:4705   */\n      0x7468657265206973206e6f2066756e6420666f7220796f750000000000000000\n        /* \"#utility.yul\":4675:4676   */\n      0x00\n        /* \"#utility.yul\":4667:4673   */\n      dup3\n        /* \"#utility.yul\":4663:4677   */\n      add\n        /* \"#utility.yul\":4656:4706   */\n      mstore\n        /* \"#utility.yul\":4539:4713   */\n      pop\n      jump\t// out\n        /* \"#utility.yul\":4719:5085   */\n    tag_115:\n        /* \"#utility.yul\":4861:4864   */\n      0x00\n        /* \"#utility.yul\":4882:4949   */\n      tag_182\n        /* \"#utility.yul\":4946:4948   */\n      0x18\n        /* \"#utility.yul\":4941:4944   */\n      dup4\n        /* \"#utility.yul\":4882:4949   */\n      tag_109\n      jump\t// in\n    tag_182:\n        /* \"#utility.yul\":4875:4949   */\n      swap2\n      pop\n        /* \"#utility.yul\":4958:5051   */\n      tag_183\n        /* \"#utility.yul\":5047:5050   */\n      dup3\n        /* \"#utility.yul\":4958:5051   */\n      tag_114\n      jump\t// in\n    tag_183:\n        /* \"#utility.yul\":5076:5078   */\n      0x20\n        /* \"#utility.yul\":5071:5074   */\n      dup3\n        /* \"#utility.yul\":5067:5079   */\n      add\n        /* \"#utility.yul\":5060:5079   */\n      swap1\n      pop\n        /* \"#utility.yul\":4719:5085   */\n      swap2\n      swap1\n      pop\n      jump\t// out\n        /* \"#utility.yul\":5091:5510   */\n    tag_46:\n        /* \"#utility.yul\":5257:5261   */\n      0x00\n        /* \"#utility.yul\":5295:5297   */\n      0x20\n        /* \"#utility.yul\":5284:5293   */\n      dup3\n        /* \"#utility.yul\":5280:5298   */\n      add\n        /* \"#utility.yul\":5272:5298   */\n      swap1\n      pop\n        /* \"#utility.yul\":5344:5353   */\n      dup2\n        /* \"#utility.yul\":5338:5342   */\n      dup2\n        /* \"#utility.yul\":5334:5354   */\n      sub\n        /* \"#utility.yul\":5330:5331   */\n      0x00\n        /* \"#utility.yul\":5319:5328   */\n      dup4\n        /* \"#utility.yul\":5315:5332   */\n      add\n        /* \"#utility.yul\":5308:5355   */\n      mstore\n        /* \"#utility.yul\":5372:5503   */\n      tag_185\n        /* \"#utility.yul\":5498:5502   */\n      dup2\n        /* \"#utility.yul\":5372:5503   */\n      tag_115\n      jump\t// in\n    tag_185:\n        /* \"#utility.yul\":5364:5503   */\n      swap1\n      pop\n        /* \"#utility.yul\":5091:5510   */\n      swap2\n      swap1\n      pop\n      jump\t// out\n        /* \"#utility.yul\":5516:5663   */\n    tag_116:\n        /* \"#utility.yul\":5617:5628   */\n      0x00\n        /* \"#utility.yul\":5654:5657   */\n      dup2\n        /* \"#utility.yul\":5639:5657   */\n      swap1\n      pop\n        /* \"#utility.yul\":5516:5663   */\n      swap3\n      swap2\n      pop\n      pop\n      jump\t// out\n        /* \"#utility.yul\":5669:5783   */\n    tag_117:\n      pop\n      jump\t// out\n        /* \"#utility.yul\":5789:6187   */\n    tag_118:\n        /* \"#utility.yul\":5948:5951   */\n      0x00\n        /* \"#utility.yul\":5969:6052   */\n      tag_189\n        /* \"#utility.yul\":6050:6051   */\n      0x00\n        /* \"#utility.yul\":6045:6048   */\n      dup4\n        /* \"#utility.yul\":5969:6052   */\n      tag_116\n      jump\t// in\n    tag_189:\n        /* \"#utility.yul\":5962:6052   */\n      swap2\n      pop\n        /* \"#utility.yul\":6061:6154   */\n      tag_190\n        /* \"#utility.yul\":6150:6153   */\n      dup3\n        /* \"#utility.yul\":6061:6154   */\n      tag_117\n      jump\t// in\n    tag_190:\n        /* \"#utility.yul\":6179:6180   */\n      0x00\n        /* \"#utility.yul\":6174:6177   */\n      dup3\n        /* \"#utility.yul\":6170:6181   */\n      add\n        /* \"#utility.yul\":6163:6181   */\n      swap1\n      pop\n        /* \"#utility.yul\":5789:6187   */\n      swap2\n      swap1\n      pop\n      jump\t// out\n        /* \"#utility.yul\":6193:6572   */\n    tag_48:\n        /* \"#utility.yul\":6377:6380   */\n      0x00\n        /* \"#utility.yul\":6399:6546   */\n      tag_192\n        /* \"#utility.yul\":6542:6545   */\n      dup3\n        /* \"#utility.yul\":6399:6546   */\n      tag_118\n      jump\t// in\n    tag_192:\n        /* \"#utility.yul\":6392:6546   */\n      swap2\n      pop\n        /* \"#utility.yul\":6563:6566   */\n      dup2\n        /* \"#utility.yul\":6556:6566   */\n      swap1\n      pop\n        /* \"#utility.yul\":6193:6572   */\n      swap2\n      swap1\n      pop\n      jump\t// out\n        /* \"#utility.yul\":6578:6746   */\n    tag_119:\n        /* \"#utility.yul\":6718:6738   */\n      0x7472616e73666572206973206661696c65640000000000000000000000000000\n        /* \"#utility.yul\":6714:6715   */\n      0x00\n        /* \"#utility.yul\":6706:6712   */\n      dup3\n        /* \"#utility.yul\":6702:6716   */\n      add\n        /* \"#utility.yul\":6695:6739   */\n      mstore\n        /* \"#utility.yul\":6578:6746   */\n      pop\n      jump\t// out\n        /* \"#utility.yul\":6752:7118   */\n    tag_120:\n        /* \"#utility.yul\":6894:6897   */\n      0x00\n        /* \"#utility.yul\":6915:6982   */\n      tag_195\n        /* \"#utility.yul\":6979:6981   */\n      0x12\n        /* \"#utility.yul\":6974:6977   */\n      dup4\n        /* \"#utility.yul\":6915:6982   */\n      tag_109\n      jump\t// in\n    tag_195:\n        /* \"#utility.yul\":6908:6982   */\n      swap2\n      pop\n        /* \"#utility.yul\":6991:7084   */\n      tag_196\n        /* \"#utility.yul\":7080:7083   */\n      dup3\n        /* \"#utility.yul\":6991:7084   */\n      tag_119\n      jump\t// in\n    tag_196:\n        /* \"#utility.yul\":7109:7111   */\n      0x20\n        /* \"#utility.yul\":7104:7107   */\n      dup3\n        /* \"#utility.yul\":7100:7112   */\n      add\n        /* \"#utility.yul\":7093:7112   */\n      swap1\n      pop\n        /* \"#utility.yul\":6752:7118   */\n      swap2\n      swap1\n      pop\n      jump\t// out\n        /* \"#utility.yul\":7124:7543   */\n    tag_54:\n        /* \"#utility.yul\":7290:7294   */\n      0x00\n        /* \"#utility.yul\":7328:7330   */\n      0x20\n        /* \"#utility.yul\":7317:7326   */\n      dup3\n        /* \"#utility.yul\":7313:7331   */\n      add\n        /* \"#utility.yul\":7305:7331   */\n      swap1\n      pop\n        /* \"#utility.yul\":7377:7386   */\n      dup2\n        /* \"#utility.yul\":7371:7375   */\n      dup2\n        /* \"#utility.yul\":7367:7387   */\n      sub\n        /* \"#utility.yul\":7363:7364   */\n      0x00\n        /* \"#utility.yul\":7352:7361   */\n      dup4\n        /* \"#utility.yul\":7348:7365   */\n      add\n        /* \"#utility.yul\":7341:7388   */\n      mstore\n        /* \"#utility.yul\":7405:7536   */\n      tag_198\n        /* \"#utility.yul\":7531:7535   */\n      dup2\n        /* \"#utility.yul\":7405:7536   */\n      tag_120\n      jump\t// in\n    tag_198:\n        /* \"#utility.yul\":7397:7536   */\n      swap1\n      pop\n        /* \"#utility.yul\":7124:7543   */\n      swap2\n      swap1\n      pop\n      jump\t// out\n        /* \"#utility.yul\":7549:7780   */\n    tag_121:\n        /* \"#utility.yul\":7689:7723   */\n      0x7468652066756e646374696f6e206973206f6e6c792063616e2062652063616c\n        /* \"#utility.yul\":7685:7686   */\n      0x00\n        /* \"#utility.yul\":7677:7683   */\n      dup3\n        /* \"#utility.yul\":7673:7687   */\n      add\n        /* \"#utility.yul\":7666:7724   */\n      mstore\n        /* \"#utility.yul\":7758:7772   */\n      0x6c6564206279206f776e65720000000000000000000000000000000000000000\n        /* \"#utility.yul\":7753:7755   */\n      0x20\n        /* \"#utility.yul\":7745:7751   */\n      dup3\n        /* \"#utility.yul\":7741:7756   */\n      add\n        /* \"#utility.yul\":7734:7773   */\n      mstore\n        /* \"#utility.yul\":7549:7780   */\n      pop\n      jump\t// out\n        /* \"#utility.yul\":7786:8152   */\n    tag_122:\n        /* \"#utility.yul\":7928:7931   */\n      0x00\n        /* \"#utility.yul\":7949:8016   */\n      tag_201\n        /* \"#utility.yul\":8013:8015   */\n      0x2c\n        /* \"#utility.yul\":8008:8011   */\n      dup4\n        /* \"#utility.yul\":7949:8016   */\n      tag_109\n      jump\t// in\n    tag_201:\n        /* \"#utility.yul\":7942:8016   */\n      swap2\n      pop\n        /* \"#utility.yul\":8025:8118   */\n      tag_202\n        /* \"#utility.yul\":8114:8117   */\n      dup3\n        /* \"#utility.yul\":8025:8118   */\n      tag_121\n      jump\t// in\n    tag_202:\n        /* \"#utility.yul\":8143:8145   */\n      0x40\n        /* \"#utility.yul\":8138:8141   */\n      dup3\n        /* \"#utility.yul\":8134:8146   */\n      add\n        /* \"#utility.yul\":8127:8146   */\n      swap1\n      pop\n        /* \"#utility.yul\":7786:8152   */\n      swap2\n      swap1\n      pop\n      jump\t// out\n        /* \"#utility.yul\":8158:8577   */\n    tag_62:\n        /* \"#utility.yul\":8324:8328   */\n      0x00\n        /* \"#utility.yul\":8362:8364   */\n      0x20\n        /* \"#utility.yul\":8351:8360   */\n      dup3\n        /* \"#utility.yul\":8347:8365   */\n      add\n        /* \"#utility.yul\":8339:8365   */\n      swap1\n      pop\n        /* \"#utility.yul\":8411:8420   */\n      dup2\n        /* \"#utility.yul\":8405:8409   */\n      dup2\n        /* \"#utility.yul\":8401:8421   */\n      sub\n        /* \"#utility.yul\":8397:8398   */\n      0x00\n        /* \"#utility.yul\":8386:8395   */\n      dup4\n        /* \"#utility.yul\":8382:8399   */\n      add\n        /* \"#utility.yul\":8375:8422   */\n      mstore\n        /* \"#utility.yul\":8439:8570   */\n      tag_204\n        /* \"#utility.yul\":8565:8569   */\n      dup2\n        /* \"#utility.yul\":8439:8570   */\n      tag_122\n      jump\t// in\n    tag_204:\n        /* \"#utility.yul\":8431:8570   */\n      swap1\n      pop\n        /* \"#utility.yul\":8158:8577   */\n      swap2\n      swap1\n      pop\n      jump\t// out\n        /* \"#utility.yul\":8583:8754   */\n    tag_123:\n        /* \"#utility.yul\":8723:8746   */\n      0x544152474554206973206e6f7420726561636865640000000000000000000000\n        /* \"#utility.yul\":8719:8720   */\n      0x00\n        /* \"#utility.yul\":8711:8717   */\n      dup3\n        /* \"#utility.yul\":8707:8721   */\n      add\n        /* \"#utility.yul\":8700:8747   */\n      mstore\n        /* \"#utility.yul\":8583:8754   */\n      pop\n      jump\t// out\n        /* \"#utility.yul\":8760:9126   */\n    tag_124:\n        /* \"#utility.yul\":8902:8905   */\n      0x00\n        /* \"#utility.yul\":8923:8990   */\n      tag_207\n        /* \"#utility.yul\":8987:8989   */\n      0x15\n        /* \"#utility.yul\":8982:8985   */\n      dup4\n        /* \"#utility.yul\":8923:8990   */\n      tag_109\n      jump\t// in\n    tag_207:\n        /* \"#utility.yul\":8916:8990   */\n      swap2\n      pop\n        /* \"#utility.yul\":8999:9092   */\n      tag_208\n        /* \"#utility.yul\":9088:9091   */\n      dup3\n        /* \"#utility.yul\":8999:9092   */\n      tag_123\n      jump\t// in\n    tag_208:\n        /* \"#utility.yul\":9117:9119   */\n      0x20\n        /* \"#utility.yul\":9112:9115   */\n      dup3\n        /* \"#utility.yul\":9108:9120   */\n      add\n        /* \"#utility.yul\":9101:9120   */\n      swap1\n      pop\n        /* \"#utility.yul\":8760:9126   */\n      swap2\n      swap1\n      pop\n      jump\t// out\n        /* \"#utility.yul\":9132:9551   */\n    tag_67:\n        /* \"#utility.yul\":9298:9302   */\n      0x00\n        /* \"#utility.yul\":9336:9338   */\n      0x20\n        /* \"#utility.yul\":9325:9334   */\n      dup3\n        /* \"#utility.yul\":9321:9339   */\n      add\n        /* \"#utility.yul\":9313:9339   */\n      swap1\n      pop\n        /* \"#utility.yul\":9385:9394   */\n      dup2\n        /* \"#utility.yul\":9379:9383   */\n      dup2\n        /* \"#utility.yul\":9375:9395   */\n      sub\n        /* \"#utility.yul\":9371:9372   */\n      0x00\n        /* \"#utility.yul\":9360:9369   */\n      dup4\n        /* \"#utility.yul\":9356:9373   */\n      add\n        /* \"#utility.yul\":9349:9396   */\n      mstore\n        /* \"#utility.yul\":9413:9544   */\n      tag_210\n        /* \"#utility.yul\":9539:9543   */\n      dup2\n        /* \"#utility.yul\":9413:9544   */\n      tag_124\n      jump\t// in\n    tag_210:\n        /* \"#utility.yul\":9405:9544   */\n      swap1\n      pop\n        /* \"#utility.yul\":9132:9551   */\n      swap2\n      swap1\n      pop\n      jump\t// out\n        /* \"#utility.yul\":9557:9720   */\n    tag_125:\n        /* \"#utility.yul\":9697:9712   */\n      0x53656e64206d6f72652045544800000000000000000000000000000000000000\n        /* \"#utility.yul\":9693:9694   */\n      0x00\n        /* \"#utility.yul\":9685:9691   */\n      dup3\n        /* \"#utility.yul\":9681:9695   */\n      add\n        /* \"#utility.yul\":9674:9713   */\n      mstore\n        /* \"#utility.yul\":9557:9720   */\n      pop\n      jump\t// out\n        /* \"#utility.yul\":9726:10092   */\n    tag_126:\n        /* \"#utility.yul\":9868:9871   */\n      0x00\n        /* \"#utility.yul\":9889:9956   */\n      tag_213\n        /* \"#utility.yul\":9953:9955   */\n      0x0d\n        /* \"#utility.yul\":9948:9951   */\n      dup4\n        /* \"#utility.yul\":9889:9956   */\n      tag_109\n      jump\t// in\n    tag_213:\n        /* \"#utility.yul\":9882:9956   */\n      swap2\n      pop\n        /* \"#utility.yul\":9965:10058   */\n      tag_214\n        /* \"#utility.yul\":10054:10057   */\n      dup3\n        /* \"#utility.yul\":9965:10058   */\n      tag_125\n      jump\t// in\n    tag_214:\n        /* \"#utility.yul\":10083:10085   */\n      0x20\n        /* \"#utility.yul\":10078:10081   */\n      dup3\n        /* \"#utility.yul\":10074:10086   */\n      add\n        /* \"#utility.yul\":10067:10086   */\n      swap1\n      pop\n        /* \"#utility.yul\":9726:10092   */\n      swap2\n      swap1\n      pop\n      jump\t// out\n        /* \"#utility.yul\":10098:10517   */\n    tag_82:\n        /* \"#utility.yul\":10264:10268   */\n      0x00\n        /* \"#utility.yul\":10302:10304   */\n      0x20\n        /* \"#utility.yul\":10291:10300   */\n      dup3\n        /* \"#utility.yul\":10287:10305   */\n      add\n        /* \"#utility.yul\":10279:10305   */\n      swap1\n      pop\n        /* \"#utility.yul\":10351:10360   */\n      dup2\n        /* \"#utility.yul\":10345:10349   */\n      dup2\n        /* \"#utility.yul\":10341:10361   */\n      sub\n        /* \"#utility.yul\":10337:10338   */\n      0x00\n        /* \"#utility.yul\":10326:10335   */\n      dup4\n        /* \"#utility.yul\":10322:10339   */\n      add\n        /* \"#utility.yul\":10315:10362   */\n      mstore\n        /* \"#utility.yul\":10379:10510   */\n      tag_216\n        /* \"#utility.yul\":10505:10509   */\n      dup2\n        /* \"#utility.yul\":10379:10510   */\n      tag_126\n      jump\t// in\n    tag_216:\n        /* \"#utility.yul\":10371:10510   */\n      swap1\n      pop\n        /* \"#utility.yul\":10098:10517   */\n      swap2\n      swap1\n      pop\n      jump\t// out\n        /* \"#utility.yul\":10523:10628   */\n    tag_127:\n        /* \"#utility.yul\":10559:10566   */\n      0x00\n        /* \"#utility.yul\":10599:10621   */\n      0xffffffffffffffffffff\n        /* \"#utility.yul\":10592:10597   */\n      dup3\n        /* \"#utility.yul\":10588:10622   */\n      and\n        /* \"#utility.yul\":10577:10622   */\n      swap1\n      pop\n        /* \"#utility.yul\":10523:10628   */\n      swap2\n      swap1\n      pop\n      jump\t// out\n        /* \"#utility.yul\":10634:10754   */\n    tag_128:\n        /* \"#utility.yul\":10706:10729   */\n      tag_219\n        /* \"#utility.yul\":10723:10728   */\n      dup2\n        /* \"#utility.yul\":10706:10729   */\n      tag_127\n      jump\t// in\n    tag_219:\n        /* \"#utility.yul\":10699:10704   */\n      dup2\n        /* \"#utility.yul\":10696:10730   */\n      eq\n        /* \"#utility.yul\":10686:10748   */\n      tag_220\n      jumpi\n        /* \"#utility.yul\":10744:10745   */\n      0x00\n        /* \"#utility.yul\":10741:10742   */\n      0x00\n        /* \"#utility.yul\":10734:10746   */\n      revert\n        /* \"#utility.yul\":10686:10748   */\n    tag_220:\n        /* \"#utility.yul\":10634:10754   */\n      pop\n      jump\t// out\n        /* \"#utility.yul\":10760:10901   */\n    tag_129:\n        /* \"#utility.yul\":10816:10821   */\n      0x00\n        /* \"#utility.yul\":10847:10853   */\n      dup2\n        /* \"#utility.yul\":10841:10854   */\n      mload\n        /* \"#utility.yul\":10832:10854   */\n      swap1\n      pop\n        /* \"#utility.yul\":10863:10895   */\n      tag_222\n        /* \"#utility.yul\":10889:10894   */\n      dup2\n        /* \"#utility.yul\":10863:10895   */\n      tag_128\n      jump\t// in\n    tag_222:\n        /* \"#utility.yul\":10760:10901   */\n      swap3\n      swap2\n      pop\n      pop\n      jump\t// out\n        /* \"#utility.yul\":10907:11027   */\n    tag_130:\n        /* \"#utility.yul\":10979:11002   */\n      tag_224\n        /* \"#utility.yul\":10996:11001   */\n      dup2\n        /* \"#utility.yul\":10979:11002   */\n      tag_106\n      jump\t// in\n    tag_224:\n        /* \"#utility.yul\":10972:10977   */\n      dup2\n        /* \"#utility.yul\":10969:11003   */\n      eq\n        /* \"#utility.yul\":10959:11021   */\n      tag_225\n      jumpi\n        /* \"#utility.yul\":11017:11018   */\n      0x00\n        /* \"#utility.yul\":11014:11015   */\n      0x00\n        /* \"#utility.yul\":11007:11019   */\n      revert\n        /* \"#utility.yul\":10959:11021   */\n    tag_225:\n        /* \"#utility.yul\":10907:11027   */\n      pop\n      jump\t// out\n        /* \"#utility.yul\":11033:11174   */\n    tag_131:\n        /* \"#utility.yul\":11089:11094   */\n      0x00\n        /* \"#utility.yul\":11120:11126   */\n      dup2\n        /* \"#utility.yul\":11114:11127   */\n      mload\n        /* \"#utility.yul\":11105:11127   */\n      swap1\n      pop\n        /* \"#utility.yul\":11136:11168   */\n      tag_227\n        /* \"#utility.yul\":11162:11167   */\n      dup2\n        /* \"#utility.yul\":11136:11168   */\n      tag_130\n      jump\t// in\n    tag_227:\n        /* \"#utility.yul\":11033:11174   */\n      swap3\n      swap2\n      pop\n      pop\n      jump\t// out\n        /* \"#utility.yul\":11180:11302   */\n    tag_132:\n        /* \"#utility.yul\":11253:11277   */\n      tag_229\n        /* \"#utility.yul\":11271:11276   */\n      dup2\n        /* \"#utility.yul\":11253:11277   */\n      tag_104\n      jump\t// in\n    tag_229:\n        /* \"#utility.yul\":11246:11251   */\n      dup2\n        /* \"#utility.yul\":11243:11278   */\n      eq\n        /* \"#utility.yul\":11233:11296   */\n      tag_230\n      jumpi\n        /* \"#utility.yul\":11292:11293   */\n      0x00\n        /* \"#utility.yul\":11289:11290   */\n      0x00\n        /* \"#utility.yul\":11282:11294   */\n      revert\n        /* \"#utility.yul\":11233:11296   */\n    tag_230:\n        /* \"#utility.yul\":11180:11302   */\n      pop\n      jump\t// out\n        /* \"#utility.yul\":11308:11451   */\n    tag_133:\n        /* \"#utility.yul\":11365:11370   */\n      0x00\n        /* \"#utility.yul\":11396:11402   */\n      dup2\n        /* \"#utility.yul\":11390:11403   */\n      mload\n        /* \"#utility.yul\":11381:11403   */\n      swap1\n      pop\n        /* \"#utility.yul\":11412:11445   */\n      tag_232\n        /* \"#utility.yul\":11439:11444   */\n      dup2\n        /* \"#utility.yul\":11412:11445   */\n      tag_132\n      jump\t// in\n    tag_232:\n        /* \"#utility.yul\":11308:11451   */\n      swap3\n      swap2\n      pop\n      pop\n      jump\t// out\n        /* \"#utility.yul\":11457:12428   */\n    tag_87:\n        /* \"#utility.yul\":11560:11566   */\n      0x00\n        /* \"#utility.yul\":11568:11574   */\n      0x00\n        /* \"#utility.yul\":11576:11582   */\n      0x00\n        /* \"#utility.yul\":11584:11590   */\n      0x00\n        /* \"#utility.yul\":11592:11598   */\n      0x00\n        /* \"#utility.yul\":11641:11644   */\n      0xa0\n        /* \"#utility.yul\":11629:11638   */\n      dup7\n        /* \"#utility.yul\":11620:11627   */\n      dup9\n        /* \"#utility.yul\":11616:11639   */\n      sub\n        /* \"#utility.yul\":11612:11645   */\n      slt\n        /* \"#utility.yul\":11609:11729   */\n      iszero\n      tag_234\n      jumpi\n        /* \"#utility.yul\":11648:11727   */\n      tag_235\n      tag_98\n      jump\t// in\n    tag_235:\n        /* \"#utility.yul\":11609:11729   */\n    tag_234:\n        /* \"#utility.yul\":11768:11769   */\n      0x00\n        /* \"#utility.yul\":11793:11856   */\n      tag_236\n        /* \"#utility.yul\":11848:11855   */\n      dup9\n        /* \"#utility.yul\":11839:11845   */\n      dup3\n        /* \"#utility.yul\":11828:11837   */\n      dup10\n        /* \"#utility.yul\":11824:11846   */\n      add\n        /* \"#utility.yul\":11793:11856   */\n      tag_129\n      jump\t// in\n    tag_236:\n        /* \"#utility.yul\":11783:11856   */\n      swap6\n      pop\n        /* \"#utility.yul\":11739:11866   */\n      pop\n        /* \"#utility.yul\":11905:11907   */\n      0x20\n        /* \"#utility.yul\":11931:11994   */\n      tag_237\n        /* \"#utility.yul\":11986:11993   */\n      dup9\n        /* \"#utility.yul\":11977:11983   */\n      dup3\n        /* \"#utility.yul\":11966:11975   */\n      dup10\n        /* \"#utility.yul\":11962:11984   */\n      add\n        /* \"#utility.yul\":11931:11994   */\n      tag_131\n      jump\t// in\n    tag_237:\n        /* \"#utility.yul\":11921:11994   */\n      swap5\n      pop\n        /* \"#utility.yul\":11876:12004   */\n      pop\n        /* \"#utility.yul\":12043:12045   */\n      0x40\n        /* \"#utility.yul\":12069:12133   */\n      tag_238\n        /* \"#utility.yul\":12125:12132   */\n      dup9\n        /* \"#utility.yul\":12116:12122   */\n      dup3\n        /* \"#utility.yul\":12105:12114   */\n      dup10\n        /* \"#utility.yul\":12101:12123   */\n      add\n        /* \"#utility.yul\":12069:12133   */\n      tag_133\n      jump\t// in\n    tag_238:\n        /* \"#utility.yul\":12059:12133   */\n      swap4\n      pop\n        /* \"#utility.yul\":12014:12143   */\n      pop\n        /* \"#utility.yul\":12182:12184   */\n      0x60\n        /* \"#utility.yul\":12208:12272   */\n      tag_239\n        /* \"#utility.yul\":12264:12271   */\n      dup9\n        /* \"#utility.yul\":12255:12261   */\n      dup3\n        /* \"#utility.yul\":12244:12253   */\n      dup10\n        /* \"#utility.yul\":12240:12262   */\n      add\n        /* \"#utility.yul\":12208:12272   */\n      tag_133\n      jump\t// in\n    tag_239:\n        /* \"#utility.yul\":12198:12272   */\n      swap3\n      pop\n        /* \"#utility.yul\":12153:12282   */\n      pop\n        /* \"#utility.yul\":12321:12324   */\n      0x80\n        /* \"#utility.yul\":12348:12411   */\n      tag_240\n        /* \"#utility.yul\":12403:12410   */\n      dup9\n        /* \"#utility.yul\":12394:12400   */\n      dup3\n        /* \"#utility.yul\":12383:12392   */\n      dup10\n        /* \"#utility.yul\":12379:12401   */\n      add\n        /* \"#utility.yul\":12348:12411   */\n      tag_129\n      jump\t// in\n    tag_240:\n        /* \"#utility.yul\":12338:12411   */\n      swap2\n      pop\n        /* \"#utility.yul\":12292:12421   */\n      pop\n        /* \"#utility.yul\":11457:12428   */\n      swap3\n      swap6\n      pop\n      swap3\n      swap6\n      swap1\n      swap4\n      pop\n      jump\t// out\n        /* \"#utility.yul\":12434:12844   */\n    tag_94:\n        /* \"#utility.yul\":12474:12481   */\n      0x00\n        /* \"#utility.yul\":12497:12517   */\n      tag_242\n        /* \"#utility.yul\":12515:12516   */\n      dup3\n        /* \"#utility.yul\":12497:12517   */\n      tag_104\n      jump\t// in\n    tag_242:\n        /* \"#utility.yul\":12492:12517   */\n      swap2\n      pop\n        /* \"#utility.yul\":12531:12551   */\n      tag_243\n        /* \"#utility.yul\":12549:12550   */\n      dup4\n        /* \"#utility.yul\":12531:12551   */\n      tag_104\n      jump\t// in\n    tag_243:\n        /* \"#utility.yul\":12526:12551   */\n      swap3\n      pop\n        /* \"#utility.yul\":12586:12587   */\n      dup3\n        /* \"#utility.yul\":12583:12584   */\n      dup3\n        /* \"#utility.yul\":12579:12588   */\n      mul\n        /* \"#utility.yul\":12608:12638   */\n      tag_244\n        /* \"#utility.yul\":12626:12637   */\n      dup2\n        /* \"#utility.yul\":12608:12638   */\n      tag_104\n      jump\t// in\n    tag_244:\n        /* \"#utility.yul\":12597:12638   */\n      swap2\n      pop\n        /* \"#utility.yul\":12787:12788   */\n      dup3\n        /* \"#utility.yul\":12778:12785   */\n      dup3\n        /* \"#utility.yul\":12774:12789   */\n      div\n        /* \"#utility.yul\":12771:12772   */\n      dup5\n        /* \"#utility.yul\":12768:12790   */\n      eq\n        /* \"#utility.yul\":12748:12749   */\n      dup4\n        /* \"#utility.yul\":12741:12750   */\n      iszero\n        /* \"#utility.yul\":12721:12804   */\n      or\n        /* \"#utility.yul\":12698:12837   */\n      tag_245\n      jumpi\n        /* \"#utility.yul\":12817:12835   */\n      tag_246\n      tag_108\n      jump\t// in\n    tag_246:\n        /* \"#utility.yul\":12698:12837   */\n    tag_245:\n        /* \"#utility.yul\":12482:12844   */\n      pop\n        /* \"#utility.yul\":12434:12844   */\n      swap3\n      swap2\n      pop\n      pop\n      jump\t// out\n        /* \"#utility.yul\":12850:13030   */\n    tag_134:\n        /* \"#utility.yul\":12898:12975   */\n      0x4e487b7100000000000000000000000000000000000000000000000000000000\n        /* \"#utility.yul\":12895:12896   */\n      0x00\n        /* \"#utility.yul\":12888:12976   */\n      mstore\n        /* \"#utility.yul\":12995:12999   */\n      0x12\n        /* \"#utility.yul\":12992:12993   */\n      0x04\n        /* \"#utility.yul\":12985:13000   */\n      mstore\n        /* \"#utility.yul\":13019:13023   */\n      0x24\n        /* \"#utility.yul\":13016:13017   */\n      0x00\n        /* \"#utility.yul\":13009:13024   */\n      revert\n        /* \"#utility.yul\":13036:13221   */\n    tag_96:\n        /* \"#utility.yul\":13076:13077   */\n      0x00\n        /* \"#utility.yul\":13093:13113   */\n      tag_249\n        /* \"#utility.yul\":13111:13112   */\n      dup3\n        /* \"#utility.yul\":13093:13113   */\n      tag_104\n      jump\t// in\n    tag_249:\n        /* \"#utility.yul\":13088:13113   */\n      swap2\n      pop\n        /* \"#utility.yul\":13127:13147   */\n      tag_250\n        /* \"#utility.yul\":13145:13146   */\n      dup4\n        /* \"#utility.yul\":13127:13147   */\n      tag_104\n      jump\t// in\n    tag_250:\n        /* \"#utility.yul\":13122:13147   */\n      swap3\n      pop\n        /* \"#utility.yul\":13166:13167   */\n      dup3\n        /* \"#utility.yul\":13156:13191   */\n      tag_251\n      jumpi\n        /* \"#utility.yul\":13171:13189   */\n      tag_252\n      tag_134\n      jump\t// in\n    tag_252:\n        /* \"#utility.yul\":13156:13191   */\n    tag_251:\n        /* \"#utility.yul\":13213:13214   */\n      dup3\n        /* \"#utility.yul\":13210:13211   */\n      dup3\n        /* \"#utility.yul\":13206:13215   */\n      div\n        /* \"#utility.yul\":13201:13215   */\n      swap1\n      pop\n        /* \"#utility.yul\":13036:13221   */\n      swap3\n      swap2\n      pop\n      pop\n      jump\t// out\n\n    auxdata: 0xa2646970667358221220181f0dcedcd9a2a05d7d0244d977ae2f3125718260e7a4e4be1135eafa3e643764736f6c634300081e0033\n}\n",
				"bytecode": {
					"linkReferences": {},
					"object": "608060405234801561000f575f5ffd5b50604051610fe6380380610fe683398181016040528101906100319190610110565b73694aa1769357215de4fac081bf1f309adc32530660015f6101000a81548173ffffffffffffffffffffffffffffffffffffffff021916908373ffffffffffffffffffffffffffffffffffffffff1602179055503360025f6101000a81548173ffffffffffffffffffffffffffffffffffffffff021916908373ffffffffffffffffffffffffffffffffffffffff16021790555042600381905550806004819055505061013b565b5f5ffd5b5f819050919050565b6100ef816100dd565b81146100f9575f5ffd5b50565b5f8151905061010a816100e6565b92915050565b5f60208284031215610125576101246100d9565b5b5f610132848285016100fc565b91505092915050565b610e9e806101485f395ff3fe608060405260043610610054575f3560e01c8063590e1ae3146100585780638edd6eb61461006e5780639f883a0514610084578063b60d4288146100c0578063bea4dfb5146100ca578063f2fde38b146100f4575b5f5ffd5b348015610063575f5ffd5b5061006c61011c565b005b348015610079575f5ffd5b50610082610369565b005b34801561008f575f5ffd5b506100aa60048036038101906100a59190610884565b61058c565b6040516100b791906108c7565b60405180910390f35b6100c86105a0565b005b3480156100d5575f5ffd5b506100de610688565b6040516100eb91906108f8565b60405180910390f35b3480156100ff575f5ffd5b5061011a60048036038101906101159190610884565b610725565b005b60045460035461012c919061093e565b42101561016e576040517f08c379a0000000000000000000000000000000000000000000000000000000008152600401610165906109cb565b60405180910390fd5b6802b5e3af16b1880000610181476107f7565b106101c1576040517f08c379a00000000000000000000000000000000000000000000000000000000081526004016101b890610a33565b60405180910390fd5b5f5f5f3373ffffffffffffffffffffffffffffffffffffffff1673ffffffffffffffffffffffffffffffffffffffff1681526020019081526020015f20540361023f576040517f08c379a000000000000000000000000000000000000000000000000000000000815260040161023690610a9b565b60405180910390fd5b5f3373ffffffffffffffffffffffffffffffffffffffff165f5f3373ffffffffffffffffffffffffffffffffffffffff1673ffffffffffffffffffffffffffffffffffffffff1681526020019081526020015f20546040516102a090610ae6565b5f6040518083038185875af1925050503d805f81146102da576040519150601f19603f3d011682016040523d82523d5f602084013e6102df565b606091505b50508091505080610325576040517f08c379a000000000000000000000000000000000000000000000000000000000815260040161031c90610b44565b60405180910390fd5b5f5f5f3373ffffffffffffffffffffffffffffffffffffffff1673ffffffffffffffffffffffffffffffffffffffff1681526020019081526020015f208190555050565b600454600354610379919061093e565b4210156103bb576040517f08c379a00000000000000000000000000000000000000000000000000000000081526004016103b2906109cb565b60405180910390fd5b60025f9054906101000a900473ffffffffffffffffffffffffffffffffffffffff1673ffffffffffffffffffffffffffffffffffffffff163373ffffffffffffffffffffffffffffffffffffffff161461044a576040517f08c379a000000000000000000000000000000000000000000000000000000000815260040161044190610bd2565b60405180910390fd5b6802b5e3af16b188000061045d476107f7565b101561049e576040517f08c379a000000000000000000000000000000000000000000000000000000000815260040161049590610c3a565b60405180910390fd5b5f3373ffffffffffffffffffffffffffffffffffffffff16476040516104c390610ae6565b5f6040518083038185875af1925050503d805f81146104fd576040519150601f19603f3d011682016040523d82523d5f602084013e610502565b606091505b50508091505080610548576040517f08c379a000000000000000000000000000000000000000000000000000000000815260040161053f90610b44565b60405180910390fd5b5f5f5f3373ffffffffffffffffffffffffffffffffffffffff1673ffffffffffffffffffffffffffffffffffffffff1681526020019081526020015f208190555050565b5f602052805f5260405f205f915090505481565b6004546003546105b0919061093e565b4210156105f2576040517f08c379a00000000000000000000000000000000000000000000000000000000081526004016105e9906109cb565b60405180910390fd5b678ac7230489e80000610604346107f7565b1015610645576040517f08c379a000000000000000000000000000000000000000000000000000000000815260040161063c90610ca2565b60405180910390fd5b345f5f3373ffffffffffffffffffffffffffffffffffffffff1673ffffffffffffffffffffffffffffffffffffffff1681526020019081526020015f2081905550565b5f5f60015f9054906101000a900473ffffffffffffffffffffffffffffffffffffffff1673ffffffffffffffffffffffffffffffffffffffff1663feaf968c6040518163ffffffff1660e01b815260040160a060405180830381865afa1580156106f4573d5f5f3e3d5ffd5b505050506040513d601f19601f820116820180604052508101906107189190610d53565b5050509150508091505090565b60025f9054906101000a900473ffffffffffffffffffffffffffffffffffffffff1673ffffffffffffffffffffffffffffffffffffffff163373ffffffffffffffffffffffffffffffffffffffff16146107b4576040517f08c379a00000000000000000000000000000000000000000000000000000000081526004016107ab90610bd2565b60405180910390fd5b8060025f6101000a81548173ffffffffffffffffffffffffffffffffffffffff021916908373ffffffffffffffffffffffffffffffffffffffff16021790555050565b5f5f610801610688565b90506305f5e10081846108149190610dca565b61081e9190610e38565b915050919050565b5f5ffd5b5f73ffffffffffffffffffffffffffffffffffffffff82169050919050565b5f6108538261082a565b9050919050565b61086381610849565b811461086d575f5ffd5b50565b5f8135905061087e8161085a565b92915050565b5f6020828403121561089957610898610826565b5b5f6108a684828501610870565b91505092915050565b5f819050919050565b6108c1816108af565b82525050565b5f6020820190506108da5f8301846108b8565b92915050565b5f819050919050565b6108f2816108e0565b82525050565b5f60208201905061090b5f8301846108e9565b92915050565b7f4e487b71000000000000000000000000000000000000000000000000000000005f52601160045260245ffd5b5f610948826108af565b9150610953836108af565b925082820190508082111561096b5761096a610911565b5b92915050565b5f82825260208201905092915050565b7f77696e646f77206973206e6f7420636c6f7365640000000000000000000000005f82015250565b5f6109b5601483610971565b91506109c082610981565b602082019050919050565b5f6020820190508181035f8301526109e2816109a9565b9050919050565b7f54415247455420697320726561636865640000000000000000000000000000005f82015250565b5f610a1d601183610971565b9150610a28826109e9565b602082019050919050565b5f6020820190508181035f830152610a4a81610a11565b9050919050565b7f7468657265206973206e6f2066756e6420666f7220796f7500000000000000005f82015250565b5f610a85601883610971565b9150610a9082610a51565b602082019050919050565b5f6020820190508181035f830152610ab281610a79565b9050919050565b5f81905092915050565b50565b5f610ad15f83610ab9565b9150610adc82610ac3565b5f82019050919050565b5f610af082610ac6565b9150819050919050565b7f7472616e73666572206973206661696c656400000000000000000000000000005f82015250565b5f610b2e601283610971565b9150610b3982610afa565b602082019050919050565b5f6020820190508181035f830152610b5b81610b22565b9050919050565b7f7468652066756e646374696f6e206973206f6e6c792063616e2062652063616c5f8201527f6c6564206279206f776e65720000000000000000000000000000000000000000602082015250565b5f610bbc602c83610971565b9150610bc782610b62565b604082019050919050565b5f6020820190508181035f830152610be981610bb0565b9050919050565b7f544152474554206973206e6f74207265616368656400000000000000000000005f82015250565b5f610c24601583610971565b9150610c2f82610bf0565b602082019050919050565b5f6020820190508181035f830152610c5181610c18565b9050919050565b7f53656e64206d6f726520455448000000000000000000000000000000000000005f82015250565b5f610c8c600d83610971565b9150610c9782610c58565b602082019050919050565b5f6020820190508181035f830152610cb981610c80565b9050919050565b5f69ffffffffffffffffffff82169050919050565b610cde81610cc0565b8114610ce8575f5ffd5b50565b5f81519050610cf981610cd5565b92915050565b610d08816108e0565b8114610d12575f5ffd5b50565b5f81519050610d2381610cff565b92915050565b610d32816108af565b8114610d3c575f5ffd5b50565b5f81519050610d4d81610d29565b92915050565b5f5f5f5f5f60a08688031215610d6c57610d6b610826565b5b5f610d7988828901610ceb565b9550506020610d8a88828901610d15565b9450506040610d9b88828901610d3f565b9350506060610dac88828901610d3f565b9250506080610dbd88828901610ceb565b9150509295509295909350565b5f610dd4826108af565b9150610ddf836108af565b9250828202610ded816108af565b91508282048414831517610e0457610e03610911565b5b5092915050565b7f4e487b71000000000000000000000000000000000000000000000000000000005f52601260045260245ffd5b5f610e42826108af565b9150610e4d836108af565b925082610e5d57610e5c610e0b565b5b82820490509291505056fea2646970667358221220181f0dcedcd9a2a05d7d0244d977ae2f3125718260e7a4e4be1135eafa3e643764736f6c634300081e0033",
					"opcodes": "PUSH1 0x80 PUSH1 0x40 MSTORE CALLVALUE DUP1 ISZERO PUSH2 0xF JUMPI PUSH0 PUSH0 REVERT JUMPDEST POP PUSH1 0x40 MLOAD PUSH2 0xFE6 CODESIZE SUB DUP1 PUSH2 0xFE6 DUP4 CODECOPY DUP2 DUP2 ADD PUSH1 0x40 MSTORE DUP2 ADD SWAP1 PUSH2 0x31 SWAP2 SWAP1 PUSH2 0x110 JUMP JUMPDEST PUSH20 0x694AA1769357215DE4FAC081BF1F309ADC325306 PUSH1 0x1 PUSH0 PUSH2 0x100 EXP DUP2 SLOAD DUP2 PUSH20 0xFFFFFFFFFFFFFFFFFFFFFFFFFFFFFFFFFFFFFFFF MUL NOT AND SWAP1 DUP4 PUSH20 0xFFFFFFFFFFFFFFFFFFFFFFFFFFFFFFFFFFFFFFFF AND MUL OR SWAP1 SSTORE POP CALLER PUSH1 0x2 PUSH0 PUSH2 0x100 EXP DUP2 SLOAD DUP2 PUSH20 0xFFFFFFFFFFFFFFFFFFFFFFFFFFFFFFFFFFFFFFFF MUL NOT AND SWAP1 DUP4 PUSH20 0xFFFFFFFFFFFFFFFFFFFFFFFFFFFFFFFFFFFFFFFF AND MUL OR SWAP1 SSTORE POP TIMESTAMP PUSH1 0x3 DUP2 SWAP1 SSTORE POP DUP1 PUSH1 0x4 DUP2 SWAP1 SSTORE POP POP PUSH2 0x13B JUMP JUMPDEST PUSH0 PUSH0 REVERT JUMPDEST PUSH0 DUP2 SWAP1 POP SWAP2 SWAP1 POP JUMP JUMPDEST PUSH2 0xEF DUP2 PUSH2 0xDD JUMP JUMPDEST DUP2 EQ PUSH2 0xF9 JUMPI PUSH0 PUSH0 REVERT JUMPDEST POP JUMP JUMPDEST PUSH0 DUP2 MLOAD SWAP1 POP PUSH2 0x10A DUP2 PUSH2 0xE6 JUMP JUMPDEST SWAP3 SWAP2 POP POP JUMP JUMPDEST PUSH0 PUSH1 0x20 DUP3 DUP5 SUB SLT ISZERO PUSH2 0x125 JUMPI PUSH2 0x124 PUSH2 0xD9 JUMP JUMPDEST JUMPDEST PUSH0 PUSH2 0x132 DUP5 DUP3 DUP6 ADD PUSH2 0xFC JUMP JUMPDEST SWAP2 POP POP SWAP3 SWAP2 POP POP JUMP JUMPDEST PUSH2 0xE9E DUP1 PUSH2 0x148 PUSH0 CODECOPY PUSH0 RETURN INVALID PUSH1 0x80 PUSH1 0x40 MSTORE PUSH1 0x4 CALLDATASIZE LT PUSH2 0x54 JUMPI PUSH0 CALLDATALOAD PUSH1 0xE0 SHR DUP1 PUSH4 0x590E1AE3 EQ PUSH2 0x58 JUMPI DUP1 PUSH4 0x8EDD6EB6 EQ PUSH2 0x6E JUMPI DUP1 PUSH4 0x9F883A05 EQ PUSH2 0x84 JUMPI DUP1 PUSH4 0xB60D4288 EQ PUSH2 0xC0 JUMPI DUP1 PUSH4 0xBEA4DFB5 EQ PUSH2 0xCA JUMPI DUP1 PUSH4 0xF2FDE38B EQ PUSH2 0xF4 JUMPI JUMPDEST PUSH0 PUSH0 REVERT JUMPDEST CALLVALUE DUP1 ISZERO PUSH2 0x63 JUMPI PUSH0 PUSH0 REVERT JUMPDEST POP PUSH2 0x6C PUSH2 0x11C JUMP JUMPDEST STOP JUMPDEST CALLVALUE DUP1 ISZERO PUSH2 0x79 JUMPI PUSH0 PUSH0 REVERT JUMPDEST POP PUSH2 0x82 PUSH2 0x369 JUMP JUMPDEST STOP JUMPDEST CALLVALUE DUP1 ISZERO PUSH2 0x8F JUMPI PUSH0 PUSH0 REVERT JUMPDEST POP PUSH2 0xAA PUSH1 0x4 DUP1 CALLDATASIZE SUB DUP2 ADD SWAP1 PUSH2 0xA5 SWAP2 SWAP1 PUSH2 0x884 JUMP JUMPDEST PUSH2 0x58C JUMP JUMPDEST PUSH1 0x40 MLOAD PUSH2 0xB7 SWAP2 SWAP1 PUSH2 0x8C7 JUMP JUMPDEST PUSH1 0x40 MLOAD DUP1 SWAP2 SUB SWAP1 RETURN JUMPDEST PUSH2 0xC8 PUSH2 0x5A0 JUMP JUMPDEST STOP JUMPDEST CALLVALUE DUP1 ISZERO PUSH2 0xD5 JUMPI PUSH0 PUSH0 REVERT JUMPDEST POP PUSH2 0xDE PUSH2 0x688 JUMP JUMPDEST PUSH1 0x40 MLOAD PUSH2 0xEB SWAP2 SWAP1 PUSH2 0x8F8 JUMP JUMPDEST PUSH1 0x40 MLOAD DUP1 SWAP2 SUB SWAP1 RETURN JUMPDEST CALLVALUE DUP1 ISZERO PUSH2 0xFF JUMPI PUSH0 PUSH0 REVERT JUMPDEST POP PUSH2 0x11A PUSH1 0x4 DUP1 CALLDATASIZE SUB DUP2 ADD SWAP1 PUSH2 0x115 SWAP2 SWAP1 PUSH2 0x884 JUMP JUMPDEST PUSH2 0x725 JUMP JUMPDEST STOP JUMPDEST PUSH1 0x4 SLOAD PUSH1 0x3 SLOAD PUSH2 0x12C SWAP2 SWAP1 PUSH2 0x93E JUMP JUMPDEST TIMESTAMP LT ISZERO PUSH2 0x16E JUMPI PUSH1 0x40 MLOAD PUSH32 0x8C379A000000000000000000000000000000000000000000000000000000000 DUP2 MSTORE PUSH1 0x4 ADD PUSH2 0x165 SWAP1 PUSH2 0x9CB JUMP JUMPDEST PUSH1 0x40 MLOAD DUP1 SWAP2 SUB SWAP1 REVERT JUMPDEST PUSH9 0x2B5E3AF16B1880000 PUSH2 0x181 SELFBALANCE PUSH2 0x7F7 JUMP JUMPDEST LT PUSH2 0x1C1 JUMPI PUSH1 0x40 MLOAD PUSH32 0x8C379A000000000000000000000000000000000000000000000000000000000 DUP2 MSTORE PUSH1 0x4 ADD PUSH2 0x1B8 SWAP1 PUSH2 0xA33 JUMP JUMPDEST PUSH1 0x40 MLOAD DUP1 SWAP2 SUB SWAP1 REVERT JUMPDEST PUSH0 PUSH0 PUSH0 CALLER PUSH20 0xFFFFFFFFFFFFFFFFFFFFFFFFFFFFFFFFFFFFFFFF AND PUSH20 0xFFFFFFFFFFFFFFFFFFFFFFFFFFFFFFFFFFFFFFFF AND DUP2 MSTORE PUSH1 0x20 ADD SWAP1 DUP2 MSTORE PUSH1 0x20 ADD PUSH0 KECCAK256 SLOAD SUB PUSH2 0x23F JUMPI PUSH1 0x40 MLOAD PUSH32 0x8C379A000000000000000000000000000000000000000000000000000000000 DUP2 MSTORE PUSH1 0x4 ADD PUSH2 0x236 SWAP1 PUSH2 0xA9B JUMP JUMPDEST PUSH1 0x40 MLOAD DUP1 SWAP2 SUB SWAP1 REVERT JUMPDEST PUSH0 CALLER PUSH20 0xFFFFFFFFFFFFFFFFFFFFFFFFFFFFFFFFFFFFFFFF AND PUSH0 PUSH0 CALLER PUSH20 0xFFFFFFFFFFFFFFFFFFFFFFFFFFFFFFFFFFFFFFFF AND PUSH20 0xFFFFFFFFFFFFFFFFFFFFFFFFFFFFFFFFFFFFFFFF AND DUP2 MSTORE PUSH1 0x20 ADD SWAP1 DUP2 MSTORE PUSH1 0x20 ADD PUSH0 KECCAK256 SLOAD PUSH1 0x40 MLOAD PUSH2 0x2A0 SWAP1 PUSH2 0xAE6 JUMP JUMPDEST PUSH0 PUSH1 0x40 MLOAD DUP1 DUP4 SUB DUP2 DUP6 DUP8 GAS CALL SWAP3 POP POP POP RETURNDATASIZE DUP1 PUSH0 DUP2 EQ PUSH2 0x2DA JUMPI PUSH1 0x40 MLOAD SWAP2 POP PUSH1 0x1F NOT PUSH1 0x3F RETURNDATASIZE ADD AND DUP3 ADD PUSH1 0x40 MSTORE RETURNDATASIZE DUP3 MSTORE RETURNDATASIZE PUSH0 PUSH1 0x20 DUP5 ADD RETURNDATACOPY PUSH2 0x2DF JUMP JUMPDEST PUSH1 0x60 SWAP2 POP JUMPDEST POP POP DUP1 SWAP2 POP POP DUP1 PUSH2 0x325 JUMPI PUSH1 0x40 MLOAD PUSH32 0x8C379A000000000000000000000000000000000000000000000000000000000 DUP2 MSTORE PUSH1 0x4 ADD PUSH2 0x31C SWAP1 PUSH2 0xB44 JUMP JUMPDEST PUSH1 0x40 MLOAD DUP1 SWAP2 SUB SWAP1 REVERT JUMPDEST PUSH0 PUSH0 PUSH0 CALLER PUSH20 0xFFFFFFFFFFFFFFFFFFFFFFFFFFFFFFFFFFFFFFFF AND PUSH20 0xFFFFFFFFFFFFFFFFFFFFFFFFFFFFFFFFFFFFFFFF AND DUP2 MSTORE PUSH1 0x20 ADD SWAP1 DUP2 MSTORE PUSH1 0x20 ADD PUSH0 KECCAK256 DUP2 SWAP1 SSTORE POP POP JUMP JUMPDEST PUSH1 0x4 SLOAD PUSH1 0x3 SLOAD PUSH2 0x379 SWAP2 SWAP1 PUSH2 0x93E JUMP JUMPDEST TIMESTAMP LT ISZERO PUSH2 0x3BB JUMPI PUSH1 0x40 MLOAD PUSH32 0x8C379A000000000000000000000000000000000000000000000000000000000 DUP2 MSTORE PUSH1 0x4 ADD PUSH2 0x3B2 SWAP1 PUSH2 0x9CB JUMP JUMPDEST PUSH1 0x40 MLOAD DUP1 SWAP2 SUB SWAP1 REVERT JUMPDEST PUSH1 0x2 PUSH0 SWAP1 SLOAD SWAP1 PUSH2 0x100 EXP SWAP1 DIV PUSH20 0xFFFFFFFFFFFFFFFFFFFFFFFFFFFFFFFFFFFFFFFF AND PUSH20 0xFFFFFFFFFFFFFFFFFFFFFFFFFFFFFFFFFFFFFFFF AND CALLER PUSH20 0xFFFFFFFFFFFFFFFFFFFFFFFFFFFFFFFFFFFFFFFF AND EQ PUSH2 0x44A JUMPI PUSH1 0x40 MLOAD PUSH32 0x8C379A000000000000000000000000000000000000000000000000000000000 DUP2 MSTORE PUSH1 0x4 ADD PUSH2 0x441 SWAP1 PUSH2 0xBD2 JUMP JUMPDEST PUSH1 0x40 MLOAD DUP1 SWAP2 SUB SWAP1 REVERT JUMPDEST PUSH9 0x2B5E3AF16B1880000 PUSH2 0x45D SELFBALANCE PUSH2 0x7F7 JUMP JUMPDEST LT ISZERO PUSH2 0x49E JUMPI PUSH1 0x40 MLOAD PUSH32 0x8C379A000000000000000000000000000000000000000000000000000000000 DUP2 MSTORE PUSH1 0x4 ADD PUSH2 0x495 SWAP1 PUSH2 0xC3A JUMP JUMPDEST PUSH1 0x40 MLOAD DUP1 SWAP2 SUB SWAP1 REVERT JUMPDEST PUSH0 CALLER PUSH20 0xFFFFFFFFFFFFFFFFFFFFFFFFFFFFFFFFFFFFFFFF AND SELFBALANCE PUSH1 0x40 MLOAD PUSH2 0x4C3 SWAP1 PUSH2 0xAE6 JUMP JUMPDEST PUSH0 PUSH1 0x40 MLOAD DUP1 DUP4 SUB DUP2 DUP6 DUP8 GAS CALL SWAP3 POP POP POP RETURNDATASIZE DUP1 PUSH0 DUP2 EQ PUSH2 0x4FD JUMPI PUSH1 0x40 MLOAD SWAP2 POP PUSH1 0x1F NOT PUSH1 0x3F RETURNDATASIZE ADD AND DUP3 ADD PUSH1 0x40 MSTORE RETURNDATASIZE DUP3 MSTORE RETURNDATASIZE PUSH0 PUSH1 0x20 DUP5 ADD RETURNDATACOPY PUSH2 0x502 JUMP JUMPDEST PUSH1 0x60 SWAP2 POP JUMPDEST POP POP DUP1 SWAP2 POP POP DUP1 PUSH2 0x548 JUMPI PUSH1 0x40 MLOAD PUSH32 0x8C379A000000000000000000000000000000000000000000000000000000000 DUP2 MSTORE PUSH1 0x4 ADD PUSH2 0x53F SWAP1 PUSH2 0xB44 JUMP JUMPDEST PUSH1 0x40 MLOAD DUP1 SWAP2 SUB SWAP1 REVERT JUMPDEST PUSH0 PUSH0 PUSH0 CALLER PUSH20 0xFFFFFFFFFFFFFFFFFFFFFFFFFFFFFFFFFFFFFFFF AND PUSH20 0xFFFFFFFFFFFFFFFFFFFFFFFFFFFFFFFFFFFFFFFF AND DUP2 MSTORE PUSH1 0x20 ADD SWAP1 DUP2 MSTORE PUSH1 0x20 ADD PUSH0 KECCAK256 DUP2 SWAP1 SSTORE POP POP JUMP JUMPDEST PUSH0 PUSH1 0x20 MSTORE DUP1 PUSH0 MSTORE PUSH1 0x40 PUSH0 KECCAK256 PUSH0 SWAP2 POP SWAP1 POP SLOAD DUP2 JUMP JUMPDEST PUSH1 0x4 SLOAD PUSH1 0x3 SLOAD PUSH2 0x5B0 SWAP2 SWAP1 PUSH2 0x93E JUMP JUMPDEST TIMESTAMP LT ISZERO PUSH2 0x5F2 JUMPI PUSH1 0x40 MLOAD PUSH32 0x8C379A000000000000000000000000000000000000000000000000000000000 DUP2 MSTORE PUSH1 0x4 ADD PUSH2 0x5E9 SWAP1 PUSH2 0x9CB JUMP JUMPDEST PUSH1 0x40 MLOAD DUP1 SWAP2 SUB SWAP1 REVERT JUMPDEST PUSH8 0x8AC7230489E80000 PUSH2 0x604 CALLVALUE PUSH2 0x7F7 JUMP JUMPDEST LT ISZERO PUSH2 0x645 JUMPI PUSH1 0x40 MLOAD PUSH32 0x8C379A000000000000000000000000000000000000000000000000000000000 DUP2 MSTORE PUSH1 0x4 ADD PUSH2 0x63C SWAP1 PUSH2 0xCA2 JUMP JUMPDEST PUSH1 0x40 MLOAD DUP1 SWAP2 SUB SWAP1 REVERT JUMPDEST CALLVALUE PUSH0 PUSH0 CALLER PUSH20 0xFFFFFFFFFFFFFFFFFFFFFFFFFFFFFFFFFFFFFFFF AND PUSH20 0xFFFFFFFFFFFFFFFFFFFFFFFFFFFFFFFFFFFFFFFF AND DUP2 MSTORE PUSH1 0x20 ADD SWAP1 DUP2 MSTORE PUSH1 0x20 ADD PUSH0 KECCAK256 DUP2 SWAP1 SSTORE POP JUMP JUMPDEST PUSH0 PUSH0 PUSH1 0x1 PUSH0 SWAP1 SLOAD SWAP1 PUSH2 0x100 EXP SWAP1 DIV PUSH20 0xFFFFFFFFFFFFFFFFFFFFFFFFFFFFFFFFFFFFFFFF AND PUSH20 0xFFFFFFFFFFFFFFFFFFFFFFFFFFFFFFFFFFFFFFFF AND PUSH4 0xFEAF968C PUSH1 0x40 MLOAD DUP2 PUSH4 0xFFFFFFFF AND PUSH1 0xE0 SHL DUP2 MSTORE PUSH1 0x4 ADD PUSH1 0xA0 PUSH1 0x40 MLOAD DUP1 DUP4 SUB DUP2 DUP7 GAS STATICCALL ISZERO DUP1 ISZERO PUSH2 0x6F4 JUMPI RETURNDATASIZE PUSH0 PUSH0 RETURNDATACOPY RETURNDATASIZE PUSH0 REVERT JUMPDEST POP POP POP POP PUSH1 0x40 MLOAD RETURNDATASIZE PUSH1 0x1F NOT PUSH1 0x1F DUP3 ADD AND DUP3 ADD DUP1 PUSH1 0x40 MSTORE POP DUP2 ADD SWAP1 PUSH2 0x718 SWAP2 SWAP1 PUSH2 0xD53 JUMP JUMPDEST POP POP POP SWAP2 POP POP DUP1 SWAP2 POP POP SWAP1 JUMP JUMPDEST PUSH1 0x2 PUSH0 SWAP1 SLOAD SWAP1 PUSH2 0x100 EXP SWAP1 DIV PUSH20 0xFFFFFFFFFFFFFFFFFFFFFFFFFFFFFFFFFFFFFFFF AND PUSH20 0xFFFFFFFFFFFFFFFFFFFFFFFFFFFFFFFFFFFFFFFF AND CALLER PUSH20 0xFFFFFFFFFFFFFFFFFFFFFFFFFFFFFFFFFFFFFFFF AND EQ PUSH2 0x7B4 JUMPI PUSH1 0x40 MLOAD PUSH32 0x8C379A000000000000000000000000000000000000000000000000000000000 DUP2 MSTORE PUSH1 0x4 ADD PUSH2 0x7AB SWAP1 PUSH2 0xBD2 JUMP JUMPDEST PUSH1 0x40 MLOAD DUP1 SWAP2 SUB SWAP1 REVERT JUMPDEST DUP1 PUSH1 0x2 PUSH0 PUSH2 0x100 EXP DUP2 SLOAD DUP2 PUSH20 0xFFFFFFFFFFFFFFFFFFFFFFFFFFFFFFFFFFFFFFFF MUL NOT AND SWAP1 DUP4 PUSH20 0xFFFFFFFFFFFFFFFFFFFFFFFFFFFFFFFFFFFFFFFF AND MUL OR SWAP1 SSTORE POP POP JUMP JUMPDEST PUSH0 PUSH0 PUSH2 0x801 PUSH2 0x688 JUMP JUMPDEST SWAP1 POP PUSH4 0x5F5E100 DUP2 DUP5 PUSH2 0x814 SWAP2 SWAP1 PUSH2 0xDCA JUMP JUMPDEST PUSH2 0x81E SWAP2 SWAP1 PUSH2 0xE38 JUMP JUMPDEST SWAP2 POP POP SWAP2 SWAP1 POP JUMP JUMPDEST PUSH0 PUSH0 REVERT JUMPDEST PUSH0 PUSH20 0xFFFFFFFFFFFFFFFFFFFFFFFFFFFFFFFFFFFFFFFF DUP3 AND SWAP1 POP SWAP2 SWAP1 POP JUMP JUMPDEST PUSH0 PUSH2 0x853 DUP3 PUSH2 0x82A JUMP JUMPDEST SWAP1 POP SWAP2 SWAP1 POP JUMP JUMPDEST PUSH2 0x863 DUP2 PUSH2 0x849 JUMP JUMPDEST DUP2 EQ PUSH2 0x86D JUMPI PUSH0 PUSH0 REVERT JUMPDEST POP JUMP JUMPDEST PUSH0 DUP2 CALLDATALOAD SWAP1 POP PUSH2 0x87E DUP2 PUSH2 0x85A JUMP JUMPDEST SWAP3 SWAP2 POP POP JUMP JUMPDEST PUSH0 PUSH1 0x20 DUP3 DUP5 SUB SLT ISZERO PUSH2 0x899 JUMPI PUSH2 0x898 PUSH2 0x826 JUMP JUMPDEST JUMPDEST PUSH0 PUSH2 0x8A6 DUP5 DUP3 DUP6 ADD PUSH2 0x870 JUMP JUMPDEST SWAP2 POP POP SWAP3 SWAP2 POP POP JUMP JUMPDEST PUSH0 DUP2 SWAP1 POP SWAP2 SWAP1 POP JUMP JUMPDEST PUSH2 0x8C1 DUP2 PUSH2 0x8AF JUMP JUMPDEST DUP3 MSTORE POP POP JUMP JUMPDEST PUSH0 PUSH1 0x20 DUP3 ADD SWAP1 POP PUSH2 0x8DA PUSH0 DUP4 ADD DUP5 PUSH2 0x8B8 JUMP JUMPDEST SWAP3 SWAP2 POP POP JUMP JUMPDEST PUSH0 DUP2 SWAP1 POP SWAP2 SWAP1 POP JUMP JUMPDEST PUSH2 0x8F2 DUP2 PUSH2 0x8E0 JUMP JUMPDEST DUP3 MSTORE POP POP JUMP JUMPDEST PUSH0 PUSH1 0x20 DUP3 ADD SWAP1 POP PUSH2 0x90B PUSH0 DUP4 ADD DUP5 PUSH2 0x8E9 JUMP JUMPDEST SWAP3 SWAP2 POP POP JUMP JUMPDEST PUSH32 0x4E487B7100000000000000000000000000000000000000000000000000000000 PUSH0 MSTORE PUSH1 0x11 PUSH1 0x4 MSTORE PUSH1 0x24 PUSH0 REVERT JUMPDEST PUSH0 PUSH2 0x948 DUP3 PUSH2 0x8AF JUMP JUMPDEST SWAP2 POP PUSH2 0x953 DUP4 PUSH2 0x8AF JUMP JUMPDEST SWAP3 POP DUP3 DUP3 ADD SWAP1 POP DUP1 DUP3 GT ISZERO PUSH2 0x96B JUMPI PUSH2 0x96A PUSH2 0x911 JUMP JUMPDEST JUMPDEST SWAP3 SWAP2 POP POP JUMP JUMPDEST PUSH0 DUP3 DUP3 MSTORE PUSH1 0x20 DUP3 ADD SWAP1 POP SWAP3 SWAP2 POP POP JUMP JUMPDEST PUSH32 0x77696E646F77206973206E6F7420636C6F736564000000000000000000000000 PUSH0 DUP3 ADD MSTORE POP JUMP JUMPDEST PUSH0 PUSH2 0x9B5 PUSH1 0x14 DUP4 PUSH2 0x971 JUMP JUMPDEST SWAP2 POP PUSH2 0x9C0 DUP3 PUSH2 0x981 JUMP JUMPDEST PUSH1 0x20 DUP3 ADD SWAP1 POP SWAP2 SWAP1 POP JUMP JUMPDEST PUSH0 PUSH1 0x20 DUP3 ADD SWAP1 POP DUP2 DUP2 SUB PUSH0 DUP4 ADD MSTORE PUSH2 0x9E2 DUP2 PUSH2 0x9A9 JUMP JUMPDEST SWAP1 POP SWAP2 SWAP1 POP JUMP JUMPDEST PUSH32 0x5441524745542069732072656163686564000000000000000000000000000000 PUSH0 DUP3 ADD MSTORE POP JUMP JUMPDEST PUSH0 PUSH2 0xA1D PUSH1 0x11 DUP4 PUSH2 0x971 JUMP JUMPDEST SWAP2 POP PUSH2 0xA28 DUP3 PUSH2 0x9E9 JUMP JUMPDEST PUSH1 0x20 DUP3 ADD SWAP1 POP SWAP2 SWAP1 POP JUMP JUMPDEST PUSH0 PUSH1 0x20 DUP3 ADD SWAP1 POP DUP2 DUP2 SUB PUSH0 DUP4 ADD MSTORE PUSH2 0xA4A DUP2 PUSH2 0xA11 JUMP JUMPDEST SWAP1 POP SWAP2 SWAP1 POP JUMP JUMPDEST PUSH32 0x7468657265206973206E6F2066756E6420666F7220796F750000000000000000 PUSH0 DUP3 ADD MSTORE POP JUMP JUMPDEST PUSH0 PUSH2 0xA85 PUSH1 0x18 DUP4 PUSH2 0x971 JUMP JUMPDEST SWAP2 POP PUSH2 0xA90 DUP3 PUSH2 0xA51 JUMP JUMPDEST PUSH1 0x20 DUP3 ADD SWAP1 POP SWAP2 SWAP1 POP JUMP JUMPDEST PUSH0 PUSH1 0x20 DUP3 ADD SWAP1 POP DUP2 DUP2 SUB PUSH0 DUP4 ADD MSTORE PUSH2 0xAB2 DUP2 PUSH2 0xA79 JUMP JUMPDEST SWAP1 POP SWAP2 SWAP1 POP JUMP JUMPDEST PUSH0 DUP2 SWAP1 POP SWAP3 SWAP2 POP POP JUMP JUMPDEST POP JUMP JUMPDEST PUSH0 PUSH2 0xAD1 PUSH0 DUP4 PUSH2 0xAB9 JUMP JUMPDEST SWAP2 POP PUSH2 0xADC DUP3 PUSH2 0xAC3 JUMP JUMPDEST PUSH0 DUP3 ADD SWAP1 POP SWAP2 SWAP1 POP JUMP JUMPDEST PUSH0 PUSH2 0xAF0 DUP3 PUSH2 0xAC6 JUMP JUMPDEST SWAP2 POP DUP2 SWAP1 POP SWAP2 SWAP1 POP JUMP JUMPDEST PUSH32 0x7472616E73666572206973206661696C65640000000000000000000000000000 PUSH0 DUP3 ADD MSTORE POP JUMP JUMPDEST PUSH0 PUSH2 0xB2E PUSH1 0x12 DUP4 PUSH2 0x971 JUMP JUMPDEST SWAP2 POP PUSH2 0xB39 DUP3 PUSH2 0xAFA JUMP JUMPDEST PUSH1 0x20 DUP3 ADD SWAP1 POP SWAP2 SWAP1 POP JUMP JUMPDEST PUSH0 PUSH1 0x20 DUP3 ADD SWAP1 POP DUP2 DUP2 SUB PUSH0 DUP4 ADD MSTORE PUSH2 0xB5B DUP2 PUSH2 0xB22 JUMP JUMPDEST SWAP1 POP SWAP2 SWAP1 POP JUMP JUMPDEST PUSH32 0x7468652066756E646374696F6E206973206F6E6C792063616E2062652063616C PUSH0 DUP3 ADD MSTORE PUSH32 0x6C6564206279206F776E65720000000000000000000000000000000000000000 PUSH1 0x20 DUP3 ADD MSTORE POP JUMP JUMPDEST PUSH0 PUSH2 0xBBC PUSH1 0x2C DUP4 PUSH2 0x971 JUMP JUMPDEST SWAP2 POP PUSH2 0xBC7 DUP3 PUSH2 0xB62 JUMP JUMPDEST PUSH1 0x40 DUP3 ADD SWAP1 POP SWAP2 SWAP1 POP JUMP JUMPDEST PUSH0 PUSH1 0x20 DUP3 ADD SWAP1 POP DUP2 DUP2 SUB PUSH0 DUP4 ADD MSTORE PUSH2 0xBE9 DUP2 PUSH2 0xBB0 JUMP JUMPDEST SWAP1 POP SWAP2 SWAP1 POP JUMP JUMPDEST PUSH32 0x544152474554206973206E6F7420726561636865640000000000000000000000 PUSH0 DUP3 ADD MSTORE POP JUMP JUMPDEST PUSH0 PUSH2 0xC24 PUSH1 0x15 DUP4 PUSH2 0x971 JUMP JUMPDEST SWAP2 POP PUSH2 0xC2F DUP3 PUSH2 0xBF0 JUMP JUMPDEST PUSH1 0x20 DUP3 ADD SWAP1 POP SWAP2 SWAP1 POP JUMP JUMPDEST PUSH0 PUSH1 0x20 DUP3 ADD SWAP1 POP DUP2 DUP2 SUB PUSH0 DUP4 ADD MSTORE PUSH2 0xC51 DUP2 PUSH2 0xC18 JUMP JUMPDEST SWAP1 POP SWAP2 SWAP1 POP JUMP JUMPDEST PUSH32 0x53656E64206D6F72652045544800000000000000000000000000000000000000 PUSH0 DUP3 ADD MSTORE POP JUMP JUMPDEST PUSH0 PUSH2 0xC8C PUSH1 0xD DUP4 PUSH2 0x971 JUMP JUMPDEST SWAP2 POP PUSH2 0xC97 DUP3 PUSH2 0xC58 JUMP JUMPDEST PUSH1 0x20 DUP3 ADD SWAP1 POP SWAP2 SWAP1 POP JUMP JUMPDEST PUSH0 PUSH1 0x20 DUP3 ADD SWAP1 POP DUP2 DUP2 SUB PUSH0 DUP4 ADD MSTORE PUSH2 0xCB9 DUP2 PUSH2 0xC80 JUMP JUMPDEST SWAP1 POP SWAP2 SWAP1 POP JUMP JUMPDEST PUSH0 PUSH10 0xFFFFFFFFFFFFFFFFFFFF DUP3 AND SWAP1 POP SWAP2 SWAP1 POP JUMP JUMPDEST PUSH2 0xCDE DUP2 PUSH2 0xCC0 JUMP JUMPDEST DUP2 EQ PUSH2 0xCE8 JUMPI PUSH0 PUSH0 REVERT JUMPDEST POP JUMP JUMPDEST PUSH0 DUP2 MLOAD SWAP1 POP PUSH2 0xCF9 DUP2 PUSH2 0xCD5 JUMP JUMPDEST SWAP3 SWAP2 POP POP JUMP JUMPDEST PUSH2 0xD08 DUP2 PUSH2 0x8E0 JUMP JUMPDEST DUP2 EQ PUSH2 0xD12 JUMPI PUSH0 PUSH0 REVERT JUMPDEST POP JUMP JUMPDEST PUSH0 DUP2 MLOAD SWAP1 POP PUSH2 0xD23 DUP2 PUSH2 0xCFF JUMP JUMPDEST SWAP3 SWAP2 POP POP JUMP JUMPDEST PUSH2 0xD32 DUP2 PUSH2 0x8AF JUMP JUMPDEST DUP2 EQ PUSH2 0xD3C JUMPI PUSH0 PUSH0 REVERT JUMPDEST POP JUMP JUMPDEST PUSH0 DUP2 MLOAD SWAP1 POP PUSH2 0xD4D DUP2 PUSH2 0xD29 JUMP JUMPDEST SWAP3 SWAP2 POP POP JUMP JUMPDEST PUSH0 PUSH0 PUSH0 PUSH0 PUSH0 PUSH1 0xA0 DUP7 DUP9 SUB SLT ISZERO PUSH2 0xD6C JUMPI PUSH2 0xD6B PUSH2 0x826 JUMP JUMPDEST JUMPDEST PUSH0 PUSH2 0xD79 DUP9 DUP3 DUP10 ADD PUSH2 0xCEB JUMP JUMPDEST SWAP6 POP POP PUSH1 0x20 PUSH2 0xD8A DUP9 DUP3 DUP10 ADD PUSH2 0xD15 JUMP JUMPDEST SWAP5 POP POP PUSH1 0x40 PUSH2 0xD9B DUP9 DUP3 DUP10 ADD PUSH2 0xD3F JUMP JUMPDEST SWAP4 POP POP PUSH1 0x60 PUSH2 0xDAC DUP9 DUP3 DUP10 ADD PUSH2 0xD3F JUMP JUMPDEST SWAP3 POP POP PUSH1 0x80 PUSH2 0xDBD DUP9 DUP3 DUP10 ADD PUSH2 0xCEB JUMP JUMPDEST SWAP2 POP POP SWAP3 SWAP6 POP SWAP3 SWAP6 SWAP1 SWAP4 POP JUMP JUMPDEST PUSH0 PUSH2 0xDD4 DUP3 PUSH2 0x8AF JUMP JUMPDEST SWAP2 POP PUSH2 0xDDF DUP4 PUSH2 0x8AF JUMP JUMPDEST SWAP3 POP DUP3 DUP3 MUL PUSH2 0xDED DUP2 PUSH2 0x8AF JUMP JUMPDEST SWAP2 POP DUP3 DUP3 DIV DUP5 EQ DUP4 ISZERO OR PUSH2 0xE04 JUMPI PUSH2 0xE03 PUSH2 0x911 JUMP JUMPDEST JUMPDEST POP SWAP3 SWAP2 POP POP JUMP JUMPDEST PUSH32 0x4E487B7100000000000000000000000000000000000000000000000000000000 PUSH0 MSTORE PUSH1 0x12 PUSH1 0x4 MSTORE PUSH1 0x24 PUSH0 REVERT JUMPDEST PUSH0 PUSH2 0xE42 DUP3 PUSH2 0x8AF JUMP JUMPDEST SWAP2 POP PUSH2 0xE4D DUP4 PUSH2 0x8AF JUMP JUMPDEST SWAP3 POP DUP3 PUSH2 0xE5D JUMPI PUSH2 0xE5C PUSH2 0xE0B JUMP JUMPDEST JUMPDEST DUP3 DUP3 DIV SWAP1 POP SWAP3 SWAP2 POP POP JUMP INVALID LOG2 PUSH5 0x6970667358 0x22 SLT KECCAK256 XOR 0x1F 0xD 0xCE 0xDC 0xD9 LOG2 LOG0 TSTORE PUSH30 0x244D977AE2F3125718260E7A4E4BE1135EAFA3E643764736F6C63430008 0x1E STOP CALLER "
				},
				"gasEstimates": {
					"creation": {
						"codeDepositCost": "748400",
						"executionCost": "infinite",
						"totalCost": "infinite"
					},
					"external": {
						"fund()": "infinite",
						"fundersToAmount(address)": "2823",
						"getChainlinkDataFeedLatestAnswer()": "infinite",
						"getFund()": "infinite",
						"refund()": "infinite",
						"transferOwnership(address)": "26972"
					},
					"internal": {
						"convertEthToUsd(uint256)": "infinite"
					}
				},
				"methodIdentifiers": {
					"fund()": "b60d4288",
					"fundersToAmount(address)": "9f883a05",
					"getChainlinkDataFeedLatestAnswer()": "bea4dfb5",
					"getFund()": "8edd6eb6",
					"refund()": "590e1ae3",
					"transferOwnership(address)": "f2fde38b"
				}
			},
			"storageLayout": {
				"storage": [
					{
						"astId": 53,
						"contract": "artifacts/FundMe.sol:FundMe",
						"label": "fundersToAmount",
						"offset": 0,
						"slot": "0",
						"type": "t_mapping(t_address,t_uint256)"
					},
					{
						"astId": 70,
						"contract": "artifacts/FundMe.sol:FundMe",
						"label": "dataFeed",
						"offset": 0,
						"slot": "1",
						"type": "t_contract(AggregatorV3Interface)45"
					},
					{
						"astId": 72,
						"contract": "artifacts/FundMe.sol:FundMe",
						"label": "owner",
						"offset": 0,
						"slot": "2",
						"type": "t_address"
					},
					{
						"astId": 74,
						"contract": "artifacts/FundMe.sol:FundMe",
						"label": "deploymentTimestamp",
						"offset": 0,
						"slot": "3",
						"type": "t_uint256"
					},
					{
						"astId": 76,
						"contract": "artifacts/FundMe.sol:FundMe",
						"label": "lockTime",
						"offset": 0,
						"slot": "4",
						"type": "t_uint256"
					}
				],
				"types": {
					"t_address": {
						"encoding": "inplace",
						"label": "address",
						"numberOfBytes": "20"
					},
					"t_contract(AggregatorV3Interface)45": {
						"encoding": "inplace",
						"label": "contract AggregatorV3Interface",
						"numberOfBytes": "20"
					},
					"t_mapping(t_address,t_uint256)": {
						"encoding": "mapping",
						"key": "t_address",
						"label": "mapping(address => uint256)",
						"numberOfBytes": "32",
						"value": "t_uint256"
					},
					"t_uint256": {
						"encoding": "inplace",
						"label": "uint256",
						"numberOfBytes": "32"
					}
				}
			},
			"userdoc": {
				"kind": "user",
				"methods": {},
				"version": 1
			}
		}
	}
}